{
  "contractName": "FarmerPortalBase",
  "abi": [
    {
      "anonymous": false,
      "inputs": [
        {
          "indexed": true,
          "internalType": "uint256",
          "name": "cropID",
          "type": "uint256"
        },
        {
          "indexed": true,
          "internalType": "address",
          "name": "bidder",
          "type": "address"
        },
        {
          "indexed": false,
          "internalType": "uint256",
          "name": "amount",
          "type": "uint256"
        },
        {
          "indexed": false,
          "internalType": "uint256",
          "name": "timestamp",
          "type": "uint256"
        }
      ],
      "name": "BidPlaced",
      "type": "event"
    },
    {
      "anonymous": false,
      "inputs": [
        {
          "indexed": true,
          "internalType": "address",
          "name": "buyer",
          "type": "address"
        },
        {
          "indexed": true,
          "internalType": "address",
          "name": "farmer",
          "type": "address"
        },
        {
          "indexed": false,
          "internalType": "uint256",
          "name": "cropID",
          "type": "uint256"
        },
        {
          "indexed": false,
          "internalType": "uint256",
          "name": "quantity",
          "type": "uint256"
        },
        {
          "indexed": false,
          "internalType": "uint256",
          "name": "amountHeld",
          "type": "uint256"
        }
      ],
      "name": "CropBought",
      "type": "event"
    },
    {
      "anonymous": false,
      "inputs": [
        {
          "indexed": true,
          "internalType": "address",
          "name": "farmer",
          "type": "address"
        },
        {
          "indexed": false,
          "internalType": "string",
          "name": "cropName",
          "type": "string"
        },
        {
          "indexed": false,
          "internalType": "uint256",
          "name": "price",
          "type": "uint256"
        },
        {
          "indexed": false,
          "internalType": "uint256",
          "name": "cropID",
          "type": "uint256"
        },
        {
          "indexed": false,
          "internalType": "uint256",
          "name": "quantity",
          "type": "uint256"
        },
        {
          "indexed": false,
          "internalType": "string",
          "name": "deliveryDate",
          "type": "string"
        },
        {
          "indexed": false,
          "internalType": "string",
          "name": "imageCID",
          "type": "string"
        },
        {
          "indexed": false,
          "internalType": "string",
          "name": "cultivationDate",
          "type": "string"
        }
      ],
      "name": "CropListed",
      "type": "event"
    },
    {
      "anonymous": false,
      "inputs": [
        {
          "indexed": true,
          "internalType": "address",
          "name": "buyer",
          "type": "address"
        },
        {
          "indexed": true,
          "internalType": "address",
          "name": "farmer",
          "type": "address"
        },
        {
          "indexed": false,
          "internalType": "uint256",
          "name": "cropID",
          "type": "uint256"
        },
        {
          "indexed": false,
          "internalType": "uint256",
          "name": "amountReleased",
          "type": "uint256"
        }
      ],
      "name": "DeliveryConfirmed",
      "type": "event"
    },
    {
      "anonymous": false,
      "inputs": [
        {
          "indexed": true,
          "internalType": "uint256",
          "name": "requestId",
          "type": "uint256"
        },
        {
          "indexed": true,
          "internalType": "address",
          "name": "buyer",
          "type": "address"
        },
        {
          "indexed": true,
          "internalType": "address",
          "name": "farmer",
          "type": "address"
        },
        {
          "indexed": false,
          "internalType": "uint256",
          "name": "cropID",
          "type": "uint256"
        },
        {
          "indexed": false,
          "internalType": "uint256",
          "name": "quantity",
          "type": "uint256"
        }
      ],
      "name": "PurchaseRequested",
      "type": "event"
    },
    {
      "anonymous": false,
      "inputs": [
        {
          "indexed": true,
          "internalType": "uint256",
          "name": "requestId",
          "type": "uint256"
        },
        {
          "indexed": false,
          "internalType": "enum FarmerPortalBase.RequestStatus",
          "name": "status",
          "type": "uint8"
        }
      ],
      "name": "RequestStatusChanged",
      "type": "event"
    },
    {
      "anonymous": false,
      "inputs": [
        {
          "indexed": true,
          "internalType": "address",
          "name": "user",
          "type": "address"
        },
        {
          "indexed": false,
          "internalType": "string",
          "name": "name",
          "type": "string"
        },
        {
          "indexed": false,
          "internalType": "string",
          "name": "profileImageCID",
          "type": "string"
        }
      ],
      "name": "UserProfileUpdated",
      "type": "event"
    },
    {
      "anonymous": false,
      "inputs": [
        {
          "indexed": true,
          "internalType": "address",
          "name": "user",
          "type": "address"
        },
        {
          "indexed": false,
          "internalType": "enum FarmerPortalBase.UserRole",
          "name": "role",
          "type": "uint8"
        }
      ],
      "name": "UserRegistered",
      "type": "event"
    },
    {
      "inputs": [
        {
          "internalType": "address",
          "name": "",
          "type": "address"
        }
      ],
      "name": "escrowBalances",
      "outputs": [
        {
          "internalType": "uint256",
          "name": "",
          "type": "uint256"
        }
      ],
      "stateMutability": "view",
      "type": "function"
    },
    {
      "inputs": [
        {
          "internalType": "address",
          "name": "",
          "type": "address"
        }
      ],
      "name": "users",
      "outputs": [
        {
          "internalType": "address",
          "name": "wallet",
          "type": "address"
        },
        {
          "internalType": "enum FarmerPortalBase.UserRole",
          "name": "role",
          "type": "uint8"
        },
        {
          "internalType": "bool",
          "name": "registered",
          "type": "bool"
        },
        {
          "internalType": "string",
          "name": "name",
          "type": "string"
        },
        {
          "internalType": "string",
          "name": "profileImageCID",
          "type": "string"
        },
        {
          "internalType": "string",
          "name": "location",
          "type": "string"
        },
        {
          "internalType": "string",
          "name": "contact",
          "type": "string"
        }
      ],
      "stateMutability": "view",
      "type": "function"
    },
    {
      "inputs": [
        {
          "internalType": "uint8",
          "name": "role",
          "type": "uint8"
        }
      ],
      "name": "registerUser",
      "outputs": [],
      "stateMutability": "nonpayable",
      "type": "function"
    },
    {
      "inputs": [
        {
          "internalType": "string",
          "name": "_name",
          "type": "string"
        },
        {
          "internalType": "string",
          "name": "_profileImageCID",
          "type": "string"
        },
        {
          "internalType": "string",
          "name": "_location",
          "type": "string"
        },
        {
          "internalType": "string",
          "name": "_contact",
          "type": "string"
        }
      ],
      "name": "updateUserProfile",
      "outputs": [],
      "stateMutability": "nonpayable",
      "type": "function"
    },
    {
      "inputs": [
        {
          "internalType": "address",
          "name": "_userAddress",
          "type": "address"
        }
      ],
      "name": "getUserProfile",
      "outputs": [
        {
          "internalType": "string",
          "name": "",
          "type": "string"
        },
        {
          "internalType": "string",
          "name": "",
          "type": "string"
        },
        {
          "internalType": "string",
          "name": "",
          "type": "string"
        },
        {
          "internalType": "string",
          "name": "",
          "type": "string"
        },
        {
          "internalType": "enum FarmerPortalBase.UserRole",
          "name": "",
          "type": "uint8"
        }
      ],
      "stateMutability": "view",
      "type": "function"
    },
    {
      "inputs": [
        {
          "internalType": "address",
          "name": "_user",
          "type": "address"
        }
      ],
      "name": "getUserRole",
      "outputs": [
        {
          "internalType": "enum FarmerPortalBase.UserRole",
          "name": "",
          "type": "uint8"
        }
      ],
      "stateMutability": "view",
      "type": "function"
    },
    {
      "inputs": [],
      "name": "getMyListings",
      "outputs": [
        {
          "components": [
            {
              "internalType": "string",
              "name": "cropName",
              "type": "string"
            },
            {
              "internalType": "uint256",
              "name": "price",
              "type": "uint256"
            },
            {
              "internalType": "uint256",
              "name": "cropID",
              "type": "uint256"
            },
            {
              "internalType": "uint256",
              "name": "quantity",
              "type": "uint256"
            },
            {
              "internalType": "string",
              "name": "deliveryDate",
              "type": "string"
            },
            {
              "internalType": "address",
              "name": "farmer",
              "type": "address"
            },
            {
              "internalType": "string",
              "name": "imageCID",
              "type": "string"
            },
            {
              "internalType": "string",
              "name": "cultivationDate",
              "type": "string"
            }
          ],
          "internalType": "struct FarmerPortalBase.CropListing[]",
          "name": "",
          "type": "tuple[]"
        }
      ],
      "stateMutability": "view",
      "type": "function"
    },
    {
      "inputs": [],
      "name": "getAllListings",
      "outputs": [
        {
          "components": [
            {
              "internalType": "string",
              "name": "cropName",
              "type": "string"
            },
            {
              "internalType": "uint256",
              "name": "price",
              "type": "uint256"
            },
            {
              "internalType": "uint256",
              "name": "cropID",
              "type": "uint256"
            },
            {
              "internalType": "uint256",
              "name": "quantity",
              "type": "uint256"
            },
            {
              "internalType": "string",
              "name": "deliveryDate",
              "type": "string"
            },
            {
              "internalType": "address",
              "name": "farmer",
              "type": "address"
            },
            {
              "internalType": "string",
              "name": "imageCID",
              "type": "string"
            },
            {
              "internalType": "string",
              "name": "cultivationDate",
              "type": "string"
            }
          ],
          "internalType": "struct FarmerPortalBase.CropListing[]",
          "name": "",
          "type": "tuple[]"
        }
      ],
      "stateMutability": "view",
      "type": "function"
    }
  ],
  "bytecode": "0x6080604052600160085534801561001557600080fd5b506125bd806100256000396000f3fe608060405234801561001057600080fd5b50600436106100875760003560e01c80639672ba571161005b5780639672ba5714610112578063987ee15614610142578063a87430ba14610176578063ae73ccec146101ac57610087565b8062754eea1461008c57806302b8c8cd146100aa57806327820851146100c657806379726074146100f6575b600080fd5b6100946101ca565b6040516100a19190611abd565b60405180910390f35b6100c460048036038101906100bf9190611b2c565b610666565b005b6100e060048036038101906100db9190611b85565b610a3b565b6040516100ed9190611c29565b60405180910390f35b610110600480360381019061010b9190611d79565b610a93565b005b61012c60048036038101906101279190611b85565b610c02565b6040516101399190611e5f565b60405180910390f35b61015c60048036038101906101579190611b85565b610c1a565b60405161016d959493929190611ec4565b60405180910390f35b610190600480360381019061018b9190611b85565b61101e565b6040516101a39796959493929190611f5d565b60405180910390f35b6101b46112ba565b6040516101c19190611abd565b60405180910390f35b60606000803373ffffffffffffffffffffffffffffffffffffffff1673ffffffffffffffffffffffffffffffffffffffff16815260200190815260200160002060000160159054906101000a900460ff1661025a576040517f08c379a000000000000000000000000000000000000000000000000000000000815260040161025190612034565b60405180910390fd5b6001600281111561026e5761026d611bb2565b5b6000803373ffffffffffffffffffffffffffffffffffffffff1673ffffffffffffffffffffffffffffffffffffffff16815260200190815260200160002060000160149054906101000a900460ff1660028111156102cf576102ce611bb2565b5b1461030f576040517f08c379a0000000000000000000000000000000000000000000000000000000008152600401610306906120a0565b60405180910390fd5b600160003373ffffffffffffffffffffffffffffffffffffffff1673ffffffffffffffffffffffffffffffffffffffff168152602001908152602001600020805480602002602001604051908101604052809291908181526020016000905b8282101561065d5783829060005260206000209060080201604051806101000160405290816000820180546103a2906120ef565b80601f01602080910402602001604051908101604052809291908181526020018280546103ce906120ef565b801561041b5780601f106103f05761010080835404028352916020019161041b565b820191906000526020600020905b8154815290600101906020018083116103fe57829003601f168201915b50505050508152602001600182015481526020016002820154815260200160038201548152602001600482018054610452906120ef565b80601f016020809104026020016040519081016040528092919081815260200182805461047e906120ef565b80156104cb5780601f106104a0576101008083540402835291602001916104cb565b820191906000526020600020905b8154815290600101906020018083116104ae57829003601f168201915b505050505081526020016005820160009054906101000a900473ffffffffffffffffffffffffffffffffffffffff1673ffffffffffffffffffffffffffffffffffffffff1673ffffffffffffffffffffffffffffffffffffffff16815260200160068201805461053a906120ef565b80601f0160208091040260200160405190810160405280929190818152602001828054610566906120ef565b80156105b35780601f10610588576101008083540402835291602001916105b3565b820191906000526020600020905b81548152906001019060200180831161059657829003601f168201915b505050505081526020016007820180546105cc906120ef565b80601f01602080910402602001604051908101604052809291908181526020018280546105f8906120ef565b80156106455780601f1061061a57610100808354040283529160200191610645565b820191906000526020600020905b81548152906001019060200180831161062857829003601f168201915b5050505050815250508152602001906001019061036e565b50505050905090565b6001600281111561067a57610679611bb2565b5b60ff168160ff1614806106a4575060028081111561069b5761069a611bb2565b5b60ff168160ff16145b6106e3576040517f08c379a00000000000000000000000000000000000000000000000000000000081526004016106da9061216c565b60405180910390fd5b6000803373ffffffffffffffffffffffffffffffffffffffff1673ffffffffffffffffffffffffffffffffffffffff16815260200190815260200160002060000160159054906101000a900460ff1615610772576040517f08c379a0000000000000000000000000000000000000000000000000000000008152600401610769906121d8565b60405180910390fd5b6040518060e001604052803373ffffffffffffffffffffffffffffffffffffffff1681526020018260ff1660028111156107af576107ae611bb2565b5b60028111156107c1576107c0611bb2565b5b8152602001600115158152602001604051806020016040528060008152508152602001604051806020016040528060008152508152602001604051806020016040528060008152508152602001604051806020016040528060008152508152506000803373ffffffffffffffffffffffffffffffffffffffff1673ffffffffffffffffffffffffffffffffffffffff16815260200190815260200160002060008201518160000160006101000a81548173ffffffffffffffffffffffffffffffffffffffff021916908373ffffffffffffffffffffffffffffffffffffffff16021790555060208201518160000160146101000a81548160ff021916908360028111156108d1576108d0611bb2565b5b021790555060408201518160000160156101000a81548160ff021916908315150217905550606082015181600101908161090b91906123a4565b50608082015181600201908161092191906123a4565b5060a082015181600301908161093791906123a4565b5060c082015181600401908161094d91906123a4565b509050503373ffffffffffffffffffffffffffffffffffffffff167f8e18574f8a7333e6a87112742a55853a643e2f0550f4e1a3a2c3f1bb2994441d8260ff16600281111561099f5761099e611bb2565b5b6040516109ac9190611c29565b60405180910390a2600160028111156109c8576109c7611bb2565b5b60ff168160ff1603610a38576004339080600181540180825580915050600190039060005260206000200160009091909190916101000a81548173ffffffffffffffffffffffffffffffffffffffff021916908373ffffffffffffffffffffffffffffffffffffffff1602179055505b50565b60008060008373ffffffffffffffffffffffffffffffffffffffff1673ffffffffffffffffffffffffffffffffffffffff16815260200190815260200160002060000160149054906101000a900460ff169050919050565b6000803373ffffffffffffffffffffffffffffffffffffffff1673ffffffffffffffffffffffffffffffffffffffff16815260200190815260200160002060000160159054906101000a900460ff16610b21576040517f08c379a0000000000000000000000000000000000000000000000000000000008152600401610b1890612034565b60405180910390fd5b60008060003373ffffffffffffffffffffffffffffffffffffffff1673ffffffffffffffffffffffffffffffffffffffff168152602001908152602001600020905084816001019081610b7491906123a4565b5083816002019081610b8691906123a4565b5082816003019081610b9891906123a4565b5081816004019081610baa91906123a4565b503373ffffffffffffffffffffffffffffffffffffffff167fc13dafd9d9a1258e2f2de748cef0b799dbcc614ed620f5b0564ae615a759795c8686604051610bf3929190612476565b60405180910390a25050505050565b60036020528060005260406000206000915090505481565b60608060608060008060008773ffffffffffffffffffffffffffffffffffffffff1673ffffffffffffffffffffffffffffffffffffffff16815260200190815260200160002060000160159054906101000a900460ff16610cb0576040517f08c379a0000000000000000000000000000000000000000000000000000000008152600401610ca790612034565b60405180910390fd5b60008060008873ffffffffffffffffffffffffffffffffffffffff1673ffffffffffffffffffffffffffffffffffffffff1681526020019081526020016000206040518060e00160405290816000820160009054906101000a900473ffffffffffffffffffffffffffffffffffffffff1673ffffffffffffffffffffffffffffffffffffffff1673ffffffffffffffffffffffffffffffffffffffff1681526020016000820160149054906101000a900460ff166002811115610d7657610d75611bb2565b5b6002811115610d8857610d87611bb2565b5b81526020016000820160159054906101000a900460ff16151515158152602001600182018054610db7906120ef565b80601f0160208091040260200160405190810160405280929190818152602001828054610de3906120ef565b8015610e305780601f10610e0557610100808354040283529160200191610e30565b820191906000526020600020905b815481529060010190602001808311610e1357829003601f168201915b50505050508152602001600282018054610e49906120ef565b80601f0160208091040260200160405190810160405280929190818152602001828054610e75906120ef565b8015610ec25780601f10610e9757610100808354040283529160200191610ec2565b820191906000526020600020905b815481529060010190602001808311610ea557829003601f168201915b50505050508152602001600382018054610edb906120ef565b80601f0160208091040260200160405190810160405280929190818152602001828054610f07906120ef565b8015610f545780601f10610f2957610100808354040283529160200191610f54565b820191906000526020600020905b815481529060010190602001808311610f3757829003601f168201915b50505050508152602001600482018054610f6d906120ef565b80601f0160208091040260200160405190810160405280929190818152602001828054610f99906120ef565b8015610fe65780601f10610fbb57610100808354040283529160200191610fe6565b820191906000526020600020905b815481529060010190602001808311610fc957829003601f168201915b5050505050815250509050806060015181608001518260a001518360c001518460200151955095509550955095505091939590929450565b60006020528060005260406000206000915090508060000160009054906101000a900473ffffffffffffffffffffffffffffffffffffffff16908060000160149054906101000a900460ff16908060000160159054906101000a900460ff169080600101805461108d906120ef565b80601f01602080910402602001604051908101604052809291908181526020018280546110b9906120ef565b80156111065780601f106110db57610100808354040283529160200191611106565b820191906000526020600020905b8154815290600101906020018083116110e957829003601f168201915b50505050509080600201805461111b906120ef565b80601f0160208091040260200160405190810160405280929190818152602001828054611147906120ef565b80156111945780601f1061116957610100808354040283529160200191611194565b820191906000526020600020905b81548152906001019060200180831161117757829003601f168201915b5050505050908060030180546111a9906120ef565b80601f01602080910402602001604051908101604052809291908181526020018280546111d5906120ef565b80156112225780601f106111f757610100808354040283529160200191611222565b820191906000526020600020905b81548152906001019060200180831161120557829003601f168201915b505050505090806004018054611237906120ef565b80601f0160208091040260200160405190810160405280929190818152602001828054611263906120ef565b80156112b05780601f10611285576101008083540402835291602001916112b0565b820191906000526020600020905b81548152906001019060200180831161129357829003601f168201915b5050505050905087565b60606000805b60048054905081101561136e5760016000600483815481106112e5576112e46124ad565b5b9060005260206000200160009054906101000a900473ffffffffffffffffffffffffffffffffffffffff1673ffffffffffffffffffffffffffffffffffffffff1673ffffffffffffffffffffffffffffffffffffffff1681526020019081526020016000208054905082611359919061250b565b915080806113669061253f565b9150506112c0565b5060008167ffffffffffffffff81111561138b5761138a611c4e565b5b6040519080825280602002602001820160405280156113c457816020015b6113b16117f1565b8152602001906001900390816113a95790505b5090506000805b6004805490508110156117e7576000600482815481106113ee576113ed6124ad565b5b9060005260206000200160009054906101000a900473ffffffffffffffffffffffffffffffffffffffff1690506000600160008373ffffffffffffffffffffffffffffffffffffffff1673ffffffffffffffffffffffffffffffffffffffff16815260200190815260200160002080549050905060005b818110156117d157600160008473ffffffffffffffffffffffffffffffffffffffff1673ffffffffffffffffffffffffffffffffffffffff16815260200190815260200160002081815481106114be576114bd6124ad565b5b9060005260206000209060080201604051806101000160405290816000820180546114e8906120ef565b80601f0160208091040260200160405190810160405280929190818152602001828054611514906120ef565b80156115615780601f1061153657610100808354040283529160200191611561565b820191906000526020600020905b81548152906001019060200180831161154457829003601f168201915b50505050508152602001600182015481526020016002820154815260200160038201548152602001600482018054611598906120ef565b80601f01602080910402602001604051908101604052809291908181526020018280546115c4906120ef565b80156116115780601f106115e657610100808354040283529160200191611611565b820191906000526020600020905b8154815290600101906020018083116115f457829003601f168201915b505050505081526020016005820160009054906101000a900473ffffffffffffffffffffffffffffffffffffffff1673ffffffffffffffffffffffffffffffffffffffff1673ffffffffffffffffffffffffffffffffffffffff168152602001600682018054611680906120ef565b80601f01602080910402602001604051908101604052809291908181526020018280546116ac906120ef565b80156116f95780601f106116ce576101008083540402835291602001916116f9565b820191906000526020600020905b8154815290600101906020018083116116dc57829003601f168201915b50505050508152602001600782018054611712906120ef565b80601f016020809104026020016040519081016040528092919081815260200182805461173e906120ef565b801561178b5780601f106117605761010080835404028352916020019161178b565b820191906000526020600020905b81548152906001019060200180831161176e57829003601f168201915b5050505050815250508686806117a09061253f565b9750815181106117b3576117b26124ad565b5b602002602001018190525080806117c99061253f565b915050611465565b50505080806117df9061253f565b9150506113cb565b5081935050505090565b6040518061010001604052806060815260200160008152602001600081526020016000815260200160608152602001600073ffffffffffffffffffffffffffffffffffffffff16815260200160608152602001606081525090565b600081519050919050565b600082825260208201905092915050565b6000819050602082019050919050565b600081519050919050565b600082825260208201905092915050565b60005b838110156118b2578082015181840152602081019050611897565b60008484015250505050565b6000601f19601f8301169050919050565b60006118da82611878565b6118e48185611883565b93506118f4818560208601611894565b6118fd816118be565b840191505092915050565b6000819050919050565b61191b81611908565b82525050565b600073ffffffffffffffffffffffffffffffffffffffff82169050919050565b600061194c82611921565b9050919050565b61195c81611941565b82525050565b600061010083016000830151848203600086015261198082826118cf565b91505060208301516119956020860182611912565b5060408301516119a86040860182611912565b5060608301516119bb6060860182611912565b50608083015184820360808601526119d382826118cf565b91505060a08301516119e860a0860182611953565b5060c083015184820360c0860152611a0082826118cf565b91505060e083015184820360e0860152611a1a82826118cf565b9150508091505092915050565b6000611a338383611962565b905092915050565b6000602082019050919050565b6000611a538261184c565b611a5d8185611857565b935083602082028501611a6f85611868565b8060005b85811015611aab5784840389528151611a8c8582611a27565b9450611a9783611a3b565b925060208a01995050600181019050611a73565b50829750879550505050505092915050565b60006020820190508181036000830152611ad78184611a48565b905092915050565b6000604051905090565b600080fd5b600080fd5b600060ff82169050919050565b611b0981611af3565b8114611b1457600080fd5b50565b600081359050611b2681611b00565b92915050565b600060208284031215611b4257611b41611ae9565b5b6000611b5084828501611b17565b91505092915050565b611b6281611941565b8114611b6d57600080fd5b50565b600081359050611b7f81611b59565b92915050565b600060208284031215611b9b57611b9a611ae9565b5b6000611ba984828501611b70565b91505092915050565b7f4e487b7100000000000000000000000000000000000000000000000000000000600052602160045260246000fd5b60038110611bf257611bf1611bb2565b5b50565b6000819050611c0382611be1565b919050565b6000611c1382611bf5565b9050919050565b611c2381611c08565b82525050565b6000602082019050611c3e6000830184611c1a565b92915050565b600080fd5b600080fd5b7f4e487b7100000000000000000000000000000000000000000000000000000000600052604160045260246000fd5b611c86826118be565b810181811067ffffffffffffffff82111715611ca557611ca4611c4e565b5b80604052505050565b6000611cb8611adf565b9050611cc48282611c7d565b919050565b600067ffffffffffffffff821115611ce457611ce3611c4e565b5b611ced826118be565b9050602081019050919050565b82818337600083830152505050565b6000611d1c611d1784611cc9565b611cae565b905082815260208101848484011115611d3857611d37611c49565b5b611d43848285611cfa565b509392505050565b600082601f830112611d6057611d5f611c44565b5b8135611d70848260208601611d09565b91505092915050565b60008060008060808587031215611d9357611d92611ae9565b5b600085013567ffffffffffffffff811115611db157611db0611aee565b5b611dbd87828801611d4b565b945050602085013567ffffffffffffffff811115611dde57611ddd611aee565b5b611dea87828801611d4b565b935050604085013567ffffffffffffffff811115611e0b57611e0a611aee565b5b611e1787828801611d4b565b925050606085013567ffffffffffffffff811115611e3857611e37611aee565b5b611e4487828801611d4b565b91505092959194509250565b611e5981611908565b82525050565b6000602082019050611e746000830184611e50565b92915050565b600082825260208201905092915050565b6000611e9682611878565b611ea08185611e7a565b9350611eb0818560208601611894565b611eb9816118be565b840191505092915050565b600060a0820190508181036000830152611ede8188611e8b565b90508181036020830152611ef28187611e8b565b90508181036040830152611f068186611e8b565b90508181036060830152611f1a8185611e8b565b9050611f296080830184611c1a565b9695505050505050565b611f3c81611941565b82525050565b60008115159050919050565b611f5781611f42565b82525050565b600060e082019050611f72600083018a611f33565b611f7f6020830189611c1a565b611f8c6040830188611f4e565b8181036060830152611f9e8187611e8b565b90508181036080830152611fb28186611e8b565b905081810360a0830152611fc68185611e8b565b905081810360c0830152611fda8184611e8b565b905098975050505050505050565b7f55736572206e6f74207265676973746572656400000000000000000000000000600082015250565b600061201e601383611e7a565b915061202982611fe8565b602082019050919050565b6000602082019050818103600083015261204d81612011565b9050919050565b7f4f6e6c79206661726d65727320616c6c6f776564000000000000000000000000600082015250565b600061208a601483611e7a565b915061209582612054565b602082019050919050565b600060208201905081810360008301526120b98161207d565b9050919050565b7f4e487b7100000000000000000000000000000000000000000000000000000000600052602260045260246000fd5b6000600282049050600182168061210757607f821691505b60208210810361211a576121196120c0565b5b50919050565b7f496e76616c696420726f6c650000000000000000000000000000000000000000600082015250565b6000612156600c83611e7a565b915061216182612120565b602082019050919050565b6000602082019050818103600083015261218581612149565b9050919050565b7f5573657220616c72656164792072656769737465726564000000000000000000600082015250565b60006121c2601783611e7a565b91506121cd8261218c565b602082019050919050565b600060208201905081810360008301526121f1816121b5565b9050919050565b60008190508160005260206000209050919050565b60006020601f8301049050919050565b600082821b905092915050565b60006008830261225a7fffffffffffffffffffffffffffffffffffffffffffffffffffffffffffffffff8261221d565b612264868361221d565b95508019841693508086168417925050509392505050565b6000819050919050565b60006122a161229c61229784611908565b61227c565b611908565b9050919050565b6000819050919050565b6122bb83612286565b6122cf6122c7826122a8565b84845461222a565b825550505050565b600090565b6122e46122d7565b6122ef8184846122b2565b505050565b5b81811015612313576123086000826122dc565b6001810190506122f5565b5050565b601f82111561235857612329816121f8565b6123328461220d565b81016020851015612341578190505b61235561234d8561220d565b8301826122f4565b50505b505050565b600082821c905092915050565b600061237b6000198460080261235d565b1980831691505092915050565b6000612394838361236a565b9150826002028217905092915050565b6123ad82611878565b67ffffffffffffffff8111156123c6576123c5611c4e565b5b6123d082546120ef565b6123db828285612317565b600060209050601f83116001811461240e57600084156123fc578287015190505b6124068582612388565b86555061246e565b601f19841661241c866121f8565b60005b828110156124445784890151825560018201915060208501945060208101905061241f565b86831015612461578489015161245d601f89168261236a565b8355505b6001600288020188555050505b505050505050565b600060408201905081810360008301526124908185611e8b565b905081810360208301526124a48184611e8b565b90509392505050565b7f4e487b7100000000000000000000000000000000000000000000000000000000600052603260045260246000fd5b7f4e487b7100000000000000000000000000000000000000000000000000000000600052601160045260246000fd5b600061251682611908565b915061252183611908565b9250828201905080821115612539576125386124dc565b5b92915050565b600061254a82611908565b91507fffffffffffffffffffffffffffffffffffffffffffffffffffffffffffffffff820361257c5761257b6124dc565b5b60018201905091905056fea2646970667358221220ffb43f69cdd4ab555b6c5db5820f797c64be1378fa28cb13441fddf1ff679e6f64736f6c63430008130033",
  "immutableReferences": {},
  "source": "// SPDX-License-Identifier: MIT\npragma solidity ^0.8.19;\n\ncontract FarmerPortalBase {\n    enum UserRole { Unregistered, Farmer, Buyer }\n    enum RequestStatus { Pending, Accepted, Rejected, Completed }\n\n    struct User {\n        address wallet;\n        UserRole role;\n        bool registered;\n        string name;\n        string profileImageCID;\n        string location;\n        string contact;\n    }\n\n    struct CropListing {\n        string cropName;\n        uint256 price;\n        uint256 cropID;\n        uint256 quantity;\n        string deliveryDate;\n        address farmer;\n        string imageCID;\n        string cultivationDate;\n    }\n\n    struct Purchase {\n        uint256 cropID;\n        uint256 quantity;\n        address buyer;\n        address farmer;\n        uint256 amountHeld;\n        bool delivered;\n    }\n\n    struct PurchaseRequest {\n        uint256 requestId;\n        uint256 cropID;\n        uint256 quantity;\n        address buyer;\n        address farmer;\n        uint256 price;\n        RequestStatus status;\n        string message;\n        uint256 timestamp;\n    }\n\n    struct Bid {\n        address bidder;\n        uint256 amount;\n        uint256 timestamp;\n    }\n\n    mapping(address => User) public users;\n    mapping(address => CropListing[]) internal farmerListings;\n    mapping(address => Purchase[]) internal deliveries;\n    mapping(address => uint256) public escrowBalances;\n    address[] internal farmers;\n    \n    PurchaseRequest[] internal purchaseRequests;\n    mapping(address => uint[]) internal farmerRequests;\n    mapping(address => uint[]) internal buyerRequests;\n    uint256 internal nextRequestId = 1;\n\n    mapping(uint256 => Bid[]) internal cropBids;\n\n    event UserRegistered(address indexed user, UserRole role);\n    event UserProfileUpdated(address indexed user, string name, string profileImageCID);\n    event CropListed(address indexed farmer, string cropName, uint256 price, uint256 cropID, uint256 quantity, string deliveryDate, string imageCID, string cultivationDate);\n    event CropBought(address indexed buyer, address indexed farmer, uint256 cropID, uint256 quantity, uint256 amountHeld);\n    event DeliveryConfirmed(address indexed buyer, address indexed farmer, uint256 cropID, uint256 amountReleased);\n    event PurchaseRequested(uint256 indexed requestId, address indexed buyer, address indexed farmer, uint256 cropID, uint256 quantity);\n    event RequestStatusChanged(uint256 indexed requestId, RequestStatus status);\n    event BidPlaced(uint256 indexed cropID, address indexed bidder, uint256 amount, uint256 timestamp);\n\n    modifier onlyFarmer() {\n        require(users[msg.sender].registered, \"User not registered\");\n        require(users[msg.sender].role == UserRole.Farmer, \"Only farmers allowed\");\n        _;\n    }\n\n    modifier onlyBuyer() {\n        require(users[msg.sender].registered, \"User not registered\");\n        require(users[msg.sender].role == UserRole.Buyer, \"Only buyers allowed\");\n        _;\n    }\n\n    function registerUser(uint8 role) external {\n        require(role == uint8(UserRole.Farmer) || role == uint8(UserRole.Buyer), \"Invalid role\");\n        require(!users[msg.sender].registered, \"User already registered\");\n\n        users[msg.sender] = User(msg.sender, UserRole(role), true, \"\", \"\", \"\", \"\");\n        emit UserRegistered(msg.sender, UserRole(role));\n\n        if (role == uint8(UserRole.Farmer)) {\n            farmers.push(msg.sender);\n        }\n    }\n\n    function updateUserProfile(string memory _name, string memory _profileImageCID, string memory _location, string memory _contact) external {\n        require(users[msg.sender].registered, \"User not registered\");\n        \n        User storage user = users[msg.sender];\n        user.name = _name;\n        user.profileImageCID = _profileImageCID;\n        user.location = _location;\n        user.contact = _contact;\n        \n        emit UserProfileUpdated(msg.sender, _name, _profileImageCID);\n    }\n\n    function getUserProfile(address _userAddress) external view returns (string memory, string memory, string memory, string memory, UserRole) {\n        require(users[_userAddress].registered, \"User not registered\");\n        User memory user = users[_userAddress];\n        return (user.name, user.profileImageCID, user.location, user.contact, user.role);\n    }\n\n    function getUserRole(address _user) external view returns (UserRole) {\n        return users[_user].role;\n    }\n\n    function getMyListings() external view onlyFarmer returns (CropListing[] memory) {\n        return farmerListings[msg.sender];\n    }\n\n    function getAllListings() external view returns (CropListing[] memory) {\n        uint256 totalCrops = 0;\n        for (uint256 i = 0; i < farmers.length; i++) {\n            totalCrops += farmerListings[farmers[i]].length;\n        }\n\n        CropListing[] memory allListings = new CropListing[](totalCrops);\n        uint256 index = 0;\n\n        for (uint256 i = 0; i < farmers.length; i++) {\n            address farmer = farmers[i]; \n            uint256 len = farmerListings[farmer].length;\n            for (uint256 j = 0; j < len; j++) {\n                allListings[index++] = farmerListings[farmer][j];\n            }\n        }\n\n        return allListings;\n    }\n} ",
  "sourcePath": "D:\\FarmAssure\\FarmAssure\\FarmAssure\\contract\\contracts\\FarmerPortalBase.sol",
  "compiler": {
    "name": "solc",
    "version": "0.8.19+commit.7dd6d404.Emscripten.clang"
  },
  "schemaVersion": "3.4.16",
  "updatedAt": "2025-09-14T09:56:07.165Z",
  "devdoc": {
    "kind": "dev",
    "methods": {},
    "version": 1
  },
  "userdoc": {
    "kind": "user",
    "methods": {},
    "version": 1
  }
}