{
  "contractName": "FarmerPortal",
  "abi": [
    {
      "anonymous": false,
      "inputs": [
        {
          "indexed": true,
          "internalType": "address",
          "name": "buyer",
          "type": "address"
        },
        {
          "indexed": true,
          "internalType": "address",
          "name": "farmer",
          "type": "address"
        },
        {
          "indexed": false,
          "internalType": "uint256",
          "name": "cropID",
          "type": "uint256"
        },
        {
          "indexed": false,
          "internalType": "uint256",
          "name": "quantity",
          "type": "uint256"
        },
        {
          "indexed": false,
          "internalType": "uint256",
          "name": "amountHeld",
          "type": "uint256"
        }
      ],
      "name": "CropBought",
      "type": "event"
    },
    {
      "anonymous": false,
      "inputs": [
        {
          "indexed": true,
          "internalType": "address",
          "name": "farmer",
          "type": "address"
        },
        {
          "indexed": false,
          "internalType": "string",
          "name": "cropName",
          "type": "string"
        },
        {
          "indexed": false,
          "internalType": "uint256",
          "name": "price",
          "type": "uint256"
        },
        {
          "indexed": false,
          "internalType": "uint256",
          "name": "cropID",
          "type": "uint256"
        },
        {
          "indexed": false,
          "internalType": "uint256",
          "name": "quantity",
          "type": "uint256"
        },
        {
          "indexed": false,
          "internalType": "string",
          "name": "deliveryDate",
          "type": "string"
        },
        {
          "indexed": false,
          "internalType": "string",
          "name": "imageCID",
          "type": "string"
        }
      ],
      "name": "CropListed",
      "type": "event"
    },
    {
      "anonymous": false,
      "inputs": [
        {
          "indexed": true,
          "internalType": "address",
          "name": "buyer",
          "type": "address"
        },
        {
          "indexed": true,
          "internalType": "address",
          "name": "farmer",
          "type": "address"
        },
        {
          "indexed": false,
          "internalType": "uint256",
          "name": "cropID",
          "type": "uint256"
        },
        {
          "indexed": false,
          "internalType": "uint256",
          "name": "amountReleased",
          "type": "uint256"
        }
      ],
      "name": "DeliveryConfirmed",
      "type": "event"
    },
    {
      "anonymous": false,
      "inputs": [
        {
          "indexed": true,
          "internalType": "uint256",
          "name": "requestId",
          "type": "uint256"
        },
        {
          "indexed": true,
          "internalType": "address",
          "name": "buyer",
          "type": "address"
        },
        {
          "indexed": true,
          "internalType": "address",
          "name": "farmer",
          "type": "address"
        },
        {
          "indexed": false,
          "internalType": "uint256",
          "name": "cropID",
          "type": "uint256"
        },
        {
          "indexed": false,
          "internalType": "uint256",
          "name": "quantity",
          "type": "uint256"
        }
      ],
      "name": "PurchaseRequested",
      "type": "event"
    },
    {
      "anonymous": false,
      "inputs": [
        {
          "indexed": true,
          "internalType": "uint256",
          "name": "requestId",
          "type": "uint256"
        },
        {
          "indexed": false,
          "internalType": "enum FarmerPortal.RequestStatus",
          "name": "status",
          "type": "uint8"
        }
      ],
      "name": "RequestStatusChanged",
      "type": "event"
    },
    {
      "anonymous": false,
      "inputs": [
        {
          "indexed": true,
          "internalType": "address",
          "name": "user",
          "type": "address"
        },
        {
          "indexed": false,
          "internalType": "string",
          "name": "name",
          "type": "string"
        },
        {
          "indexed": false,
          "internalType": "string",
          "name": "profileImageCID",
          "type": "string"
        }
      ],
      "name": "UserProfileUpdated",
      "type": "event"
    },
    {
      "anonymous": false,
      "inputs": [
        {
          "indexed": true,
          "internalType": "address",
          "name": "user",
          "type": "address"
        },
        {
          "indexed": false,
          "internalType": "enum FarmerPortal.UserRole",
          "name": "role",
          "type": "uint8"
        }
      ],
      "name": "UserRegistered",
      "type": "event"
    },
    {
      "inputs": [
        {
          "internalType": "address",
          "name": "",
          "type": "address"
        }
      ],
      "name": "escrowBalances",
      "outputs": [
        {
          "internalType": "uint256",
          "name": "",
          "type": "uint256"
        }
      ],
      "stateMutability": "view",
      "type": "function",
      "constant": true
    },
    {
      "inputs": [
        {
          "internalType": "address",
          "name": "",
          "type": "address"
        }
      ],
      "name": "users",
      "outputs": [
        {
          "internalType": "address",
          "name": "wallet",
          "type": "address"
        },
        {
          "internalType": "enum FarmerPortal.UserRole",
          "name": "role",
          "type": "uint8"
        },
        {
          "internalType": "bool",
          "name": "registered",
          "type": "bool"
        },
        {
          "internalType": "string",
          "name": "name",
          "type": "string"
        },
        {
          "internalType": "string",
          "name": "profileImageCID",
          "type": "string"
        },
        {
          "internalType": "string",
          "name": "location",
          "type": "string"
        },
        {
          "internalType": "string",
          "name": "contact",
          "type": "string"
        }
      ],
      "stateMutability": "view",
      "type": "function",
      "constant": true
    },
    {
      "inputs": [
        {
          "internalType": "uint8",
          "name": "role",
          "type": "uint8"
        }
      ],
      "name": "registerUser",
      "outputs": [],
      "stateMutability": "nonpayable",
      "type": "function"
    },
    {
      "inputs": [
        {
          "internalType": "string",
          "name": "_name",
          "type": "string"
        },
        {
          "internalType": "string",
          "name": "_profileImageCID",
          "type": "string"
        },
        {
          "internalType": "string",
          "name": "_location",
          "type": "string"
        },
        {
          "internalType": "string",
          "name": "_contact",
          "type": "string"
        }
      ],
      "name": "updateUserProfile",
      "outputs": [],
      "stateMutability": "nonpayable",
      "type": "function"
    },
    {
      "inputs": [
        {
          "internalType": "address",
          "name": "_userAddress",
          "type": "address"
        }
      ],
      "name": "getUserProfile",
      "outputs": [
        {
          "internalType": "string",
          "name": "",
          "type": "string"
        },
        {
          "internalType": "string",
          "name": "",
          "type": "string"
        },
        {
          "internalType": "string",
          "name": "",
          "type": "string"
        },
        {
          "internalType": "string",
          "name": "",
          "type": "string"
        },
        {
          "internalType": "enum FarmerPortal.UserRole",
          "name": "",
          "type": "uint8"
        }
      ],
      "stateMutability": "view",
      "type": "function",
      "constant": true
    },
    {
      "inputs": [
        {
          "internalType": "string",
          "name": "_cropName",
          "type": "string"
        },
        {
          "internalType": "uint256",
          "name": "_price",
          "type": "uint256"
        },
        {
          "internalType": "uint256",
          "name": "_cropID",
          "type": "uint256"
        },
        {
          "internalType": "uint256",
          "name": "_quantity",
          "type": "uint256"
        },
        {
          "internalType": "string",
          "name": "_deliveryDate",
          "type": "string"
        },
        {
          "internalType": "string",
          "name": "_imageCID",
          "type": "string"
        }
      ],
      "name": "addListing",
      "outputs": [],
      "stateMutability": "nonpayable",
      "type": "function"
    },
    {
      "inputs": [],
      "name": "getMyListings",
      "outputs": [
        {
          "components": [
            {
              "internalType": "string",
              "name": "cropName",
              "type": "string"
            },
            {
              "internalType": "uint256",
              "name": "price",
              "type": "uint256"
            },
            {
              "internalType": "uint256",
              "name": "cropID",
              "type": "uint256"
            },
            {
              "internalType": "uint256",
              "name": "quantity",
              "type": "uint256"
            },
            {
              "internalType": "string",
              "name": "deliveryDate",
              "type": "string"
            },
            {
              "internalType": "address",
              "name": "farmer",
              "type": "address"
            },
            {
              "internalType": "string",
              "name": "imageCID",
              "type": "string"
            }
          ],
          "internalType": "struct FarmerPortal.CropListing[]",
          "name": "",
          "type": "tuple[]"
        }
      ],
      "stateMutability": "view",
      "type": "function",
      "constant": true
    },
    {
      "inputs": [
        {
          "internalType": "address",
          "name": "_user",
          "type": "address"
        }
      ],
      "name": "getUserRole",
      "outputs": [
        {
          "internalType": "enum FarmerPortal.UserRole",
          "name": "",
          "type": "uint8"
        }
      ],
      "stateMutability": "view",
      "type": "function",
      "constant": true
    },
    {
      "inputs": [],
      "name": "getAllListings",
      "outputs": [
        {
          "components": [
            {
              "internalType": "string",
              "name": "cropName",
              "type": "string"
            },
            {
              "internalType": "uint256",
              "name": "price",
              "type": "uint256"
            },
            {
              "internalType": "uint256",
              "name": "cropID",
              "type": "uint256"
            },
            {
              "internalType": "uint256",
              "name": "quantity",
              "type": "uint256"
            },
            {
              "internalType": "string",
              "name": "deliveryDate",
              "type": "string"
            },
            {
              "internalType": "address",
              "name": "farmer",
              "type": "address"
            },
            {
              "internalType": "string",
              "name": "imageCID",
              "type": "string"
            }
          ],
          "internalType": "struct FarmerPortal.CropListing[]",
          "name": "",
          "type": "tuple[]"
        }
      ],
      "stateMutability": "view",
      "type": "function",
      "constant": true
    },
    {
      "inputs": [
        {
          "internalType": "uint256",
          "name": "cropID",
          "type": "uint256"
        },
        {
          "internalType": "uint256",
          "name": "quantity",
          "type": "uint256"
        },
        {
          "internalType": "string",
          "name": "message",
          "type": "string"
        }
      ],
      "name": "requestPurchase",
      "outputs": [],
      "stateMutability": "nonpayable",
      "type": "function"
    },
    {
      "inputs": [
        {
          "internalType": "uint256",
          "name": "requestId",
          "type": "uint256"
        },
        {
          "internalType": "bool",
          "name": "accept",
          "type": "bool"
        }
      ],
      "name": "respondToPurchaseRequest",
      "outputs": [],
      "stateMutability": "nonpayable",
      "type": "function"
    },
    {
      "inputs": [
        {
          "internalType": "uint256",
          "name": "requestId",
          "type": "uint256"
        }
      ],
      "name": "completePurchase",
      "outputs": [],
      "stateMutability": "payable",
      "type": "function",
      "payable": true
    },
    {
      "inputs": [],
      "name": "getFarmerRequests",
      "outputs": [
        {
          "components": [
            {
              "internalType": "uint256",
              "name": "requestId",
              "type": "uint256"
            },
            {
              "internalType": "uint256",
              "name": "cropID",
              "type": "uint256"
            },
            {
              "internalType": "uint256",
              "name": "quantity",
              "type": "uint256"
            },
            {
              "internalType": "address",
              "name": "buyer",
              "type": "address"
            },
            {
              "internalType": "address",
              "name": "farmer",
              "type": "address"
            },
            {
              "internalType": "uint256",
              "name": "price",
              "type": "uint256"
            },
            {
              "internalType": "enum FarmerPortal.RequestStatus",
              "name": "status",
              "type": "uint8"
            },
            {
              "internalType": "string",
              "name": "message",
              "type": "string"
            },
            {
              "internalType": "uint256",
              "name": "timestamp",
              "type": "uint256"
            }
          ],
          "internalType": "struct FarmerPortal.PurchaseRequest[]",
          "name": "",
          "type": "tuple[]"
        }
      ],
      "stateMutability": "view",
      "type": "function",
      "constant": true
    },
    {
      "inputs": [],
      "name": "getBuyerRequests",
      "outputs": [
        {
          "components": [
            {
              "internalType": "uint256",
              "name": "requestId",
              "type": "uint256"
            },
            {
              "internalType": "uint256",
              "name": "cropID",
              "type": "uint256"
            },
            {
              "internalType": "uint256",
              "name": "quantity",
              "type": "uint256"
            },
            {
              "internalType": "address",
              "name": "buyer",
              "type": "address"
            },
            {
              "internalType": "address",
              "name": "farmer",
              "type": "address"
            },
            {
              "internalType": "uint256",
              "name": "price",
              "type": "uint256"
            },
            {
              "internalType": "enum FarmerPortal.RequestStatus",
              "name": "status",
              "type": "uint8"
            },
            {
              "internalType": "string",
              "name": "message",
              "type": "string"
            },
            {
              "internalType": "uint256",
              "name": "timestamp",
              "type": "uint256"
            }
          ],
          "internalType": "struct FarmerPortal.PurchaseRequest[]",
          "name": "",
          "type": "tuple[]"
        }
      ],
      "stateMutability": "view",
      "type": "function",
      "constant": true
    },
    {
      "inputs": [],
      "name": "getPendingDeliveries",
      "outputs": [
        {
          "components": [
            {
              "internalType": "uint256",
              "name": "cropID",
              "type": "uint256"
            },
            {
              "internalType": "uint256",
              "name": "quantity",
              "type": "uint256"
            },
            {
              "internalType": "address",
              "name": "buyer",
              "type": "address"
            },
            {
              "internalType": "address",
              "name": "farmer",
              "type": "address"
            },
            {
              "internalType": "uint256",
              "name": "amountHeld",
              "type": "uint256"
            },
            {
              "internalType": "bool",
              "name": "delivered",
              "type": "bool"
            }
          ],
          "internalType": "struct FarmerPortal.Purchase[]",
          "name": "",
          "type": "tuple[]"
        }
      ],
      "stateMutability": "view",
      "type": "function",
      "constant": true
    },
    {
      "inputs": [
        {
          "internalType": "uint256",
          "name": "cropID",
          "type": "uint256"
        }
      ],
      "name": "confirmDelivery",
      "outputs": [],
      "stateMutability": "nonpayable",
      "type": "function"
    }
  ],
  "bytecode": "0x6080604052600160085534801561001557600080fd5b50615e6580620000266000396000f3fe6080604052600436106100f25760003560e01c806390145bb31161008a578063a87430ba11610059578063a87430ba1461032b578063ae73ccec1461036e578063bfeee90d14610399578063fd84cb97146103b5576100f2565b806390145bb314610259578063956e8963146102845780639672ba57146102ad578063987ee156146102ea576100f2565b80635fdfb009116100c65780635fdfb009146101b157806379726074146101dc5780638c6efadd146102055780638d6048851461022e576100f2565b8062754eea146100f757806302b8c8cd14610122578063278208511461014b5780635a58122514610188575b600080fd5b34801561010357600080fd5b5061010c6103de565b6040516101199190614614565b60405180910390f35b34801561012e57600080fd5b5061014960048036038101906101449190614683565b6107e7565b005b34801561015757600080fd5b50610172600480360381019061016d91906146dc565b610bbc565b60405161017f9190614780565b60405180910390f35b34801561019457600080fd5b506101af60048036038101906101aa91906147ff565b610c14565b005b3480156101bd57600080fd5b506101c6611060565b6040516101d39190614a0e565b60405180910390f35b3480156101e857600080fd5b5061020360048036038101906101fe9190614b65565b611524565b005b34801561021157600080fd5b5061022c60048036038101906102279190614c3c565b611693565b005b34801561023a57600080fd5b50610243611c9c565b6040516102509190614a0e565b60405180910390f35b34801561026557600080fd5b5061026e61215f565b60405161027b9190614de4565b60405180910390f35b34801561029057600080fd5b506102ab60048036038101906102a69190614e06565b612547565b005b3480156102b957600080fd5b506102d460048036038101906102cf91906146dc565b61284a565b6040516102e19190614ef6565b60405180910390f35b3480156102f657600080fd5b50610311600480360381019061030c91906146dc565b612862565b604051610322959493929190614f5b565b60405180910390f35b34801561033757600080fd5b50610352600480360381019061034d91906146dc565b612c66565b6040516103659796959493929190614fe8565b60405180910390f35b34801561037a57600080fd5b50610383612f02565b6040516103909190614614565b60405180910390f35b6103b360048036038101906103ae9190615073565b6133a6565b005b3480156103c157600080fd5b506103dc60048036038101906103d79190615073565b613d44565b005b60606000803373ffffffffffffffffffffffffffffffffffffffff1673ffffffffffffffffffffffffffffffffffffffff16815260200190815260200160002060000160159054906101000a900460ff1661046e576040517f08c379a0000000000000000000000000000000000000000000000000000000008152600401610465906150ec565b60405180910390fd5b6001600281111561048257610481614709565b5b6000803373ffffffffffffffffffffffffffffffffffffffff1673ffffffffffffffffffffffffffffffffffffffff16815260200190815260200160002060000160149054906101000a900460ff1660028111156104e3576104e2614709565b5b14610523576040517f08c379a000000000000000000000000000000000000000000000000000000000815260040161051a90615158565b60405180910390fd5b600160003373ffffffffffffffffffffffffffffffffffffffff1673ffffffffffffffffffffffffffffffffffffffff168152602001908152602001600020805480602002602001604051908101604052809291908181526020016000905b828210156107de57838290600052602060002090600702016040518060e00160405290816000820180546105b5906151a7565b80601f01602080910402602001604051908101604052809291908181526020018280546105e1906151a7565b801561062e5780601f106106035761010080835404028352916020019161062e565b820191906000526020600020905b81548152906001019060200180831161061157829003601f168201915b50505050508152602001600182015481526020016002820154815260200160038201548152602001600482018054610665906151a7565b80601f0160208091040260200160405190810160405280929190818152602001828054610691906151a7565b80156106de5780601f106106b3576101008083540402835291602001916106de565b820191906000526020600020905b8154815290600101906020018083116106c157829003601f168201915b505050505081526020016005820160009054906101000a900473ffffffffffffffffffffffffffffffffffffffff1673ffffffffffffffffffffffffffffffffffffffff1673ffffffffffffffffffffffffffffffffffffffff16815260200160068201805461074d906151a7565b80601f0160208091040260200160405190810160405280929190818152602001828054610779906151a7565b80156107c65780601f1061079b576101008083540402835291602001916107c6565b820191906000526020600020905b8154815290600101906020018083116107a957829003601f168201915b50505050508152505081526020019060010190610582565b50505050905090565b600160028111156107fb576107fa614709565b5b60ff168160ff161480610825575060028081111561081c5761081b614709565b5b60ff168160ff16145b610864576040517f08c379a000000000000000000000000000000000000000000000000000000000815260040161085b90615224565b60405180910390fd5b6000803373ffffffffffffffffffffffffffffffffffffffff1673ffffffffffffffffffffffffffffffffffffffff16815260200190815260200160002060000160159054906101000a900460ff16156108f3576040517f08c379a00000000000000000000000000000000000000000000000000000000081526004016108ea90615290565b60405180910390fd5b6040518060e001604052803373ffffffffffffffffffffffffffffffffffffffff1681526020018260ff1660028111156109305761092f614709565b5b600281111561094257610941614709565b5b8152602001600115158152602001604051806020016040528060008152508152602001604051806020016040528060008152508152602001604051806020016040528060008152508152602001604051806020016040528060008152508152506000803373ffffffffffffffffffffffffffffffffffffffff1673ffffffffffffffffffffffffffffffffffffffff16815260200190815260200160002060008201518160000160006101000a81548173ffffffffffffffffffffffffffffffffffffffff021916908373ffffffffffffffffffffffffffffffffffffffff16021790555060208201518160000160146101000a81548160ff02191690836002811115610a5257610a51614709565b5b021790555060408201518160000160156101000a81548160ff0219169083151502179055506060820151816001019081610a8c919061545c565b506080820151816002019081610aa2919061545c565b5060a0820151816003019081610ab8919061545c565b5060c0820151816004019081610ace919061545c565b509050503373ffffffffffffffffffffffffffffffffffffffff167f8e18574f8a7333e6a87112742a55853a643e2f0550f4e1a3a2c3f1bb2994441d8260ff166002811115610b2057610b1f614709565b5b604051610b2d9190614780565b60405180910390a260016002811115610b4957610b48614709565b5b60ff168160ff1603610bb9576004339080600181540180825580915050600190039060005260206000200160009091909190916101000a81548173ffffffffffffffffffffffffffffffffffffffff021916908373ffffffffffffffffffffffffffffffffffffffff1602179055505b50565b60008060008373ffffffffffffffffffffffffffffffffffffffff1673ffffffffffffffffffffffffffffffffffffffff16815260200190815260200160002060000160149054906101000a900460ff169050919050565b6000803373ffffffffffffffffffffffffffffffffffffffff1673ffffffffffffffffffffffffffffffffffffffff16815260200190815260200160002060000160159054906101000a900460ff16610ca2576040517f08c379a0000000000000000000000000000000000000000000000000000000008152600401610c99906150ec565b60405180910390fd5b60016002811115610cb657610cb5614709565b5b6000803373ffffffffffffffffffffffffffffffffffffffff1673ffffffffffffffffffffffffffffffffffffffff16815260200190815260200160002060000160149054906101000a900460ff166002811115610d1757610d16614709565b5b14610d57576040517f08c379a0000000000000000000000000000000000000000000000000000000008152600401610d4e90615158565b60405180910390fd5b60008060005b60058054905081108015610d6f575081155b15610dbb578460058281548110610d8957610d8861552e565b5b90600052602060002090600902016000015403610da857809250600191505b8080610db39061558c565b915050610d5d565b5080610dfc576040517f08c379a0000000000000000000000000000000000000000000000000000000008152600401610df390615620565b60405180910390fd5b3373ffffffffffffffffffffffffffffffffffffffff1660058381548110610e2757610e2661552e565b5b906000526020600020906009020160040160009054906101000a900473ffffffffffffffffffffffffffffffffffffffff1673ffffffffffffffffffffffffffffffffffffffff1614610eaf576040517f08c379a0000000000000000000000000000000000000000000000000000000008152600401610ea69061568c565b60405180910390fd5b60006003811115610ec357610ec2614709565b5b60058381548110610ed757610ed661552e565b5b906000526020600020906009020160060160009054906101000a900460ff166003811115610f0857610f07614709565b5b14610f48576040517f08c379a0000000000000000000000000000000000000000000000000000000008152600401610f3f906156f8565b60405180910390fd5b8215610fa157600160058381548110610f6457610f6361552e565b5b906000526020600020906009020160060160006101000a81548160ff02191690836003811115610f9757610f96614709565b5b0217905550610ff0565b600260058381548110610fb757610fb661552e565b5b906000526020600020906009020160060160006101000a81548160ff02191690836003811115610fea57610fe9614709565b5b02179055505b837fc8926ec9c62d9b87ca5e4dfb0b49c1d0797cde714599e2c6d5663e5b813413ab600584815481106110265761102561552e565b5b906000526020600020906009020160060160009054906101000a900460ff166040516110529190615727565b60405180910390a250505050565b60606000803373ffffffffffffffffffffffffffffffffffffffff1673ffffffffffffffffffffffffffffffffffffffff16815260200190815260200160002060000160159054906101000a900460ff166110f0576040517f08c379a00000000000000000000000000000000000000000000000000000000081526004016110e7906150ec565b60405180910390fd5b6001600281111561110457611103614709565b5b6000803373ffffffffffffffffffffffffffffffffffffffff1673ffffffffffffffffffffffffffffffffffffffff16815260200190815260200160002060000160149054906101000a900460ff16600281111561116557611164614709565b5b146111a5576040517f08c379a000000000000000000000000000000000000000000000000000000000815260040161119c90615158565b60405180910390fd5b6000600660003373ffffffffffffffffffffffffffffffffffffffff1673ffffffffffffffffffffffffffffffffffffffff16815260200190815260200160002080548060200260200160405190810160405280929190818152602001828054801561123057602002820191906000526020600020905b81548152602001906001019080831161121c575b505050505090506000815167ffffffffffffffff81111561125457611253614a3a565b5b60405190808252806020026020018201604052801561128d57816020015b61127a61427d565b8152602001906001900390816112725790505b50905060005b825181101561151b5760008382815181106112b1576112b061552e565b5b6020026020010151905060005b6005805490508110156115065781600582815481106112e0576112df61552e565b5b906000526020600020906009020160000154036114f3576005818154811061130b5761130a61552e565b5b9060005260206000209060090201604051806101200160405290816000820154815260200160018201548152602001600282015481526020016003820160009054906101000a900473ffffffffffffffffffffffffffffffffffffffff1673ffffffffffffffffffffffffffffffffffffffff1673ffffffffffffffffffffffffffffffffffffffff1681526020016004820160009054906101000a900473ffffffffffffffffffffffffffffffffffffffff1673ffffffffffffffffffffffffffffffffffffffff1673ffffffffffffffffffffffffffffffffffffffff168152602001600582015481526020016006820160009054906101000a900460ff16600381111561141e5761141d614709565b5b60038111156114305761142f614709565b5b8152602001600782018054611444906151a7565b80601f0160208091040260200160405190810160405280929190818152602001828054611470906151a7565b80156114bd5780601f10611492576101008083540402835291602001916114bd565b820191906000526020600020905b8154815290600101906020018083116114a057829003601f168201915b505050505081526020016008820154815250508484815181106114e3576114e261552e565b5b6020026020010181905250611506565b80806114fe9061558c565b9150506112be565b505080806115139061558c565b915050611293565b50809250505090565b6000803373ffffffffffffffffffffffffffffffffffffffff1673ffffffffffffffffffffffffffffffffffffffff16815260200190815260200160002060000160159054906101000a900460ff166115b2576040517f08c379a00000000000000000000000000000000000000000000000000000000081526004016115a9906150ec565b60405180910390fd5b60008060003373ffffffffffffffffffffffffffffffffffffffff1673ffffffffffffffffffffffffffffffffffffffff168152602001908152602001600020905084816001019081611605919061545c565b5083816002019081611617919061545c565b5082816003019081611629919061545c565b508181600401908161163b919061545c565b503373ffffffffffffffffffffffffffffffffffffffff167fc13dafd9d9a1258e2f2de748cef0b799dbcc614ed620f5b0564ae615a759795c8686604051611684929190615742565b60405180910390a25050505050565b6000803373ffffffffffffffffffffffffffffffffffffffff1673ffffffffffffffffffffffffffffffffffffffff16815260200190815260200160002060000160159054906101000a900460ff16611721576040517f08c379a0000000000000000000000000000000000000000000000000000000008152600401611718906150ec565b60405180910390fd5b60028081111561173457611733614709565b5b6000803373ffffffffffffffffffffffffffffffffffffffff1673ffffffffffffffffffffffffffffffffffffffff16815260200190815260200160002060000160149054906101000a900460ff16600281111561179557611794614709565b5b146117d5576040517f08c379a00000000000000000000000000000000000000000000000000000000081526004016117cc906157c5565b60405180910390fd5b6000806000805b600480549050811080156117ee575081155b1561194a576000600482815481106118095761180861552e565b5b9060005260206000200160009054906101000a900473ffffffffffffffffffffffffffffffffffffffff1690506000600160008373ffffffffffffffffffffffffffffffffffffffff1673ffffffffffffffffffffffffffffffffffffffff16815260200190815260200160002080549050905060005b818110801561188d575084155b15611934576000600160008573ffffffffffffffffffffffffffffffffffffffff1673ffffffffffffffffffffffffffffffffffffffff16815260200190815260200160002082815481106118e5576118e461552e565b5b906000526020600020906007020190508a816002015414801561190c575089816003015410155b156119205783975080600101549650600195505b50808061192c9061558c565b915050611880565b50505080806119429061558c565b9150506117dc565b508061198b576040517f08c379a000000000000000000000000000000000000000000000000000000000815260040161198290615857565b60405180910390fd5b6000600860008154809291906119a09061558c565b91905055905060006040518061012001604052808381526020018981526020018881526020013373ffffffffffffffffffffffffffffffffffffffff1681526020018673ffffffffffffffffffffffffffffffffffffffff16815260200185815260200160006003811115611a1857611a17614709565b5b8152602001878152602001428152509050600581908060018154018082558091505060019003906000526020600020906009020160009091909190915060008201518160000155602082015181600101556040820151816002015560608201518160030160006101000a81548173ffffffffffffffffffffffffffffffffffffffff021916908373ffffffffffffffffffffffffffffffffffffffff16021790555060808201518160040160006101000a81548173ffffffffffffffffffffffffffffffffffffffff021916908373ffffffffffffffffffffffffffffffffffffffff16021790555060a0820151816005015560c08201518160060160006101000a81548160ff02191690836003811115611b3657611b35614709565b5b021790555060e0820151816007019081611b50919061545c565b5061010082015181600801555050600660008673ffffffffffffffffffffffffffffffffffffffff1673ffffffffffffffffffffffffffffffffffffffff168152602001908152602001600020829080600181540180825580915050600190039060005260206000200160009091909190915055600760003373ffffffffffffffffffffffffffffffffffffffff1673ffffffffffffffffffffffffffffffffffffffff1681526020019081526020016000208290806001815401808255809150506001900390600052602060002001600090919091909150558473ffffffffffffffffffffffffffffffffffffffff163373ffffffffffffffffffffffffffffffffffffffff16837ff37fee757e7c509a1197948d535e31a21fa8d59b7f90b3f264150314529801098b8b604051611c8a929190615877565b60405180910390a45050505050505050565b60606000803373ffffffffffffffffffffffffffffffffffffffff1673ffffffffffffffffffffffffffffffffffffffff16815260200190815260200160002060000160159054906101000a900460ff16611d2c576040517f08c379a0000000000000000000000000000000000000000000000000000000008152600401611d23906150ec565b60405180910390fd5b600280811115611d3f57611d3e614709565b5b6000803373ffffffffffffffffffffffffffffffffffffffff1673ffffffffffffffffffffffffffffffffffffffff16815260200190815260200160002060000160149054906101000a900460ff166002811115611da057611d9f614709565b5b14611de0576040517f08c379a0000000000000000000000000000000000000000000000000000000008152600401611dd7906157c5565b60405180910390fd5b6000600760003373ffffffffffffffffffffffffffffffffffffffff1673ffffffffffffffffffffffffffffffffffffffff168152602001908152602001600020805480602002602001604051908101604052809291908181526020018280548015611e6b57602002820191906000526020600020905b815481526020019060010190808311611e57575b505050505090506000815167ffffffffffffffff811115611e8f57611e8e614a3a565b5b604051908082528060200260200182016040528015611ec857816020015b611eb561427d565b815260200190600190039081611ead5790505b50905060005b8251811015612156576000838281518110611eec57611eeb61552e565b5b6020026020010151905060005b600580549050811015612141578160058281548110611f1b57611f1a61552e565b5b9060005260206000209060090201600001540361212e5760058181548110611f4657611f4561552e565b5b9060005260206000209060090201604051806101200160405290816000820154815260200160018201548152602001600282015481526020016003820160009054906101000a900473ffffffffffffffffffffffffffffffffffffffff1673ffffffffffffffffffffffffffffffffffffffff1673ffffffffffffffffffffffffffffffffffffffff1681526020016004820160009054906101000a900473ffffffffffffffffffffffffffffffffffffffff1673ffffffffffffffffffffffffffffffffffffffff1673ffffffffffffffffffffffffffffffffffffffff168152602001600582015481526020016006820160009054906101000a900460ff16600381111561205957612058614709565b5b600381111561206b5761206a614709565b5b815260200160078201805461207f906151a7565b80601f01602080910402602001604051908101604052809291908181526020018280546120ab906151a7565b80156120f85780601f106120cd576101008083540402835291602001916120f8565b820191906000526020600020905b8154815290600101906020018083116120db57829003601f168201915b5050505050815260200160088201548152505084848151811061211e5761211d61552e565b5b6020026020010181905250612141565b80806121399061558c565b915050611ef9565b5050808061214e9061558c565b915050611ece565b50809250505090565b60606000803373ffffffffffffffffffffffffffffffffffffffff1673ffffffffffffffffffffffffffffffffffffffff16815260200190815260200160002060000160159054906101000a900460ff166121ef576040517f08c379a00000000000000000000000000000000000000000000000000000000081526004016121e6906150ec565b60405180910390fd5b60028081111561220257612201614709565b5b6000803373ffffffffffffffffffffffffffffffffffffffff1673ffffffffffffffffffffffffffffffffffffffff16815260200190815260200160002060000160149054906101000a900460ff16600281111561226357612262614709565b5b146122a3576040517f08c379a000000000000000000000000000000000000000000000000000000000815260040161229a906157c5565b60405180910390fd5b600080600260003373ffffffffffffffffffffffffffffffffffffffff1673ffffffffffffffffffffffffffffffffffffffff168152602001908152602001600020905060005b818054905081101561234e578181815481106123095761230861552e565b5b906000526020600020906006020160050160009054906101000a900460ff1661233b5782806123379061558c565b9350505b80806123469061558c565b9150506122ea565b5060008267ffffffffffffffff81111561236b5761236a614a3a565b5b6040519080825280602002602001820160405280156123a457816020015b612391614307565b8152602001906001900390816123895790505b5090506000805b838054905081101561253c578381815481106123ca576123c961552e565b5b906000526020600020906006020160050160009054906101000a900460ff1661252957838181548110612400576123ff61552e565b5b90600052602060002090600602016040518060c001604052908160008201548152602001600182015481526020016002820160009054906101000a900473ffffffffffffffffffffffffffffffffffffffff1673ffffffffffffffffffffffffffffffffffffffff1673ffffffffffffffffffffffffffffffffffffffff1681526020016003820160009054906101000a900473ffffffffffffffffffffffffffffffffffffffff1673ffffffffffffffffffffffffffffffffffffffff1673ffffffffffffffffffffffffffffffffffffffff168152602001600482015481526020016005820160009054906101000a900460ff16151515158152505083838061250a9061558c565b94508151811061251d5761251c61552e565b5b60200260200101819052505b80806125349061558c565b9150506123ab565b508194505050505090565b6000803373ffffffffffffffffffffffffffffffffffffffff1673ffffffffffffffffffffffffffffffffffffffff16815260200190815260200160002060000160159054906101000a900460ff166125d5576040517f08c379a00000000000000000000000000000000000000000000000000000000081526004016125cc906150ec565b60405180910390fd5b600160028111156125e9576125e8614709565b5b6000803373ffffffffffffffffffffffffffffffffffffffff1673ffffffffffffffffffffffffffffffffffffffff16815260200190815260200160002060000160149054906101000a900460ff16600281111561264a57612649614709565b5b1461268a576040517f08c379a000000000000000000000000000000000000000000000000000000000815260040161268190615158565b60405180910390fd5b60006040518060e001604052808881526020018781526020018681526020018581526020018481526020013373ffffffffffffffffffffffffffffffffffffffff168152602001838152509050600160003373ffffffffffffffffffffffffffffffffffffffff1673ffffffffffffffffffffffffffffffffffffffff1681526020019081526020016000208190806001815401808255809150506001900390600052602060002090600702016000909190919091506000820151816000019081612755919061545c565b506020820151816001015560408201518160020155606082015181600301556080820151816004019081612789919061545c565b5060a08201518160050160006101000a81548173ffffffffffffffffffffffffffffffffffffffff021916908373ffffffffffffffffffffffffffffffffffffffff16021790555060c08201518160060190816127e6919061545c565b5050503373ffffffffffffffffffffffffffffffffffffffff167fadb9330eb32afa957eff09d032c3a3cb7fcae7fef5068c01f1b9ffaa4c692e4b888888888888604051612839969594939291906158a0565b60405180910390a250505050505050565b60036020528060005260406000206000915090505481565b60608060608060008060008773ffffffffffffffffffffffffffffffffffffffff1673ffffffffffffffffffffffffffffffffffffffff16815260200190815260200160002060000160159054906101000a900460ff166128f8576040517f08c379a00000000000000000000000000000000000000000000000000000000081526004016128ef906150ec565b60405180910390fd5b60008060008873ffffffffffffffffffffffffffffffffffffffff1673ffffffffffffffffffffffffffffffffffffffff1681526020019081526020016000206040518060e00160405290816000820160009054906101000a900473ffffffffffffffffffffffffffffffffffffffff1673ffffffffffffffffffffffffffffffffffffffff1673ffffffffffffffffffffffffffffffffffffffff1681526020016000820160149054906101000a900460ff1660028111156129be576129bd614709565b5b60028111156129d0576129cf614709565b5b81526020016000820160159054906101000a900460ff161515151581526020016001820180546129ff906151a7565b80601f0160208091040260200160405190810160405280929190818152602001828054612a2b906151a7565b8015612a785780601f10612a4d57610100808354040283529160200191612a78565b820191906000526020600020905b815481529060010190602001808311612a5b57829003601f168201915b50505050508152602001600282018054612a91906151a7565b80601f0160208091040260200160405190810160405280929190818152602001828054612abd906151a7565b8015612b0a5780601f10612adf57610100808354040283529160200191612b0a565b820191906000526020600020905b815481529060010190602001808311612aed57829003601f168201915b50505050508152602001600382018054612b23906151a7565b80601f0160208091040260200160405190810160405280929190818152602001828054612b4f906151a7565b8015612b9c5780601f10612b7157610100808354040283529160200191612b9c565b820191906000526020600020905b815481529060010190602001808311612b7f57829003601f168201915b50505050508152602001600482018054612bb5906151a7565b80601f0160208091040260200160405190810160405280929190818152602001828054612be1906151a7565b8015612c2e5780601f10612c0357610100808354040283529160200191612c2e565b820191906000526020600020905b815481529060010190602001808311612c1157829003601f168201915b5050505050815250509050806060015181608001518260a001518360c001518460200151955095509550955095505091939590929450565b60006020528060005260406000206000915090508060000160009054906101000a900473ffffffffffffffffffffffffffffffffffffffff16908060000160149054906101000a900460ff16908060000160159054906101000a900460ff1690806001018054612cd5906151a7565b80601f0160208091040260200160405190810160405280929190818152602001828054612d01906151a7565b8015612d4e5780601f10612d2357610100808354040283529160200191612d4e565b820191906000526020600020905b815481529060010190602001808311612d3157829003601f168201915b505050505090806002018054612d63906151a7565b80601f0160208091040260200160405190810160405280929190818152602001828054612d8f906151a7565b8015612ddc5780601f10612db157610100808354040283529160200191612ddc565b820191906000526020600020905b815481529060010190602001808311612dbf57829003601f168201915b505050505090806003018054612df1906151a7565b80601f0160208091040260200160405190810160405280929190818152602001828054612e1d906151a7565b8015612e6a5780601f10612e3f57610100808354040283529160200191612e6a565b820191906000526020600020905b815481529060010190602001808311612e4d57829003601f168201915b505050505090806004018054612e7f906151a7565b80601f0160208091040260200160405190810160405280929190818152602001828054612eab906151a7565b8015612ef85780601f10612ecd57610100808354040283529160200191612ef8565b820191906000526020600020905b815481529060010190602001808311612edb57829003601f168201915b5050505050905087565b60606000805b600480549050811015612fb6576001600060048381548110612f2d57612f2c61552e565b5b9060005260206000200160009054906101000a900473ffffffffffffffffffffffffffffffffffffffff1673ffffffffffffffffffffffffffffffffffffffff1673ffffffffffffffffffffffffffffffffffffffff1681526020019081526020016000208054905082612fa19190615916565b91508080612fae9061558c565b915050612f08565b5060008167ffffffffffffffff811115612fd357612fd2614a3a565b5b60405190808252806020026020018201604052801561300c57816020015b612ff961436b565b815260200190600190039081612ff15790505b5090506000805b60048054905081101561339c576000600482815481106130365761303561552e565b5b9060005260206000200160009054906101000a900473ffffffffffffffffffffffffffffffffffffffff1690506000600160008373ffffffffffffffffffffffffffffffffffffffff1673ffffffffffffffffffffffffffffffffffffffff16815260200190815260200160002080549050905060005b8181101561338657600160008473ffffffffffffffffffffffffffffffffffffffff1673ffffffffffffffffffffffffffffffffffffffff16815260200190815260200160002081815481106131065761310561552e565b5b90600052602060002090600702016040518060e001604052908160008201805461312f906151a7565b80601f016020809104026020016040519081016040528092919081815260200182805461315b906151a7565b80156131a85780601f1061317d576101008083540402835291602001916131a8565b820191906000526020600020905b81548152906001019060200180831161318b57829003601f168201915b505050505081526020016001820154815260200160028201548152602001600382015481526020016004820180546131df906151a7565b80601f016020809104026020016040519081016040528092919081815260200182805461320b906151a7565b80156132585780601f1061322d57610100808354040283529160200191613258565b820191906000526020600020905b81548152906001019060200180831161323b57829003601f168201915b505050505081526020016005820160009054906101000a900473ffffffffffffffffffffffffffffffffffffffff1673ffffffffffffffffffffffffffffffffffffffff1673ffffffffffffffffffffffffffffffffffffffff1681526020016006820180546132c7906151a7565b80601f01602080910402602001604051908101604052809291908181526020018280546132f3906151a7565b80156133405780601f1061331557610100808354040283529160200191613340565b820191906000526020600020905b81548152906001019060200180831161332357829003601f168201915b5050505050815250508686806133559061558c565b9750815181106133685761336761552e565b5b6020026020010181905250808061337e9061558c565b9150506130ad565b50505080806133949061558c565b915050613013565b5081935050505090565b6000803373ffffffffffffffffffffffffffffffffffffffff1673ffffffffffffffffffffffffffffffffffffffff16815260200190815260200160002060000160159054906101000a900460ff16613434576040517f08c379a000000000000000000000000000000000000000000000000000000000815260040161342b906150ec565b60405180910390fd5b60028081111561344757613446614709565b5b6000803373ffffffffffffffffffffffffffffffffffffffff1673ffffffffffffffffffffffffffffffffffffffff16815260200190815260200160002060000160149054906101000a900460ff1660028111156134a8576134a7614709565b5b146134e8576040517f08c379a00000000000000000000000000000000000000000000000000000000081526004016134df906157c5565b60405180910390fd5b60008060005b60058054905081108015613500575081155b1561354c57836005828154811061351a5761351961552e565b5b9060005260206000209060090201600001540361353957809250600191505b80806135449061558c565b9150506134ee565b508061358d576040517f08c379a000000000000000000000000000000000000000000000000000000000815260040161358490615620565b60405180910390fd5b3373ffffffffffffffffffffffffffffffffffffffff16600583815481106135b8576135b761552e565b5b906000526020600020906009020160030160009054906101000a900473ffffffffffffffffffffffffffffffffffffffff1673ffffffffffffffffffffffffffffffffffffffff1614613640576040517f08c379a000000000000000000000000000000000000000000000000000000000815260040161363790615996565b60405180910390fd5b6001600381111561365457613653614709565b5b600583815481106136685761366761552e565b5b906000526020600020906009020160060160009054906101000a900460ff16600381111561369957613698614709565b5b146136d9576040517f08c379a00000000000000000000000000000000000000000000000000000000081526004016136d090615a02565b60405180910390fd5b6000600583815481106136ef576136ee61552e565b5b906000526020600020906009020190506000816002015482600501546137159190615a22565b9050803414613759576040517f08c379a000000000000000000000000000000000000000000000000000000000815260040161375090615ab0565b60405180910390fd5b6000805b600160008560040160009054906101000a900473ffffffffffffffffffffffffffffffffffffffff1673ffffffffffffffffffffffffffffffffffffffff1673ffffffffffffffffffffffffffffffffffffffff16815260200190815260200160002080549050811080156137d0575081155b156139ec578360010154600160008660040160009054906101000a900473ffffffffffffffffffffffffffffffffffffffff1673ffffffffffffffffffffffffffffffffffffffff1673ffffffffffffffffffffffffffffffffffffffff168152602001908152602001600020828154811061384f5761384e61552e565b5b906000526020600020906007020160020154036139d9578360020154600160008660040160009054906101000a900473ffffffffffffffffffffffffffffffffffffffff1673ffffffffffffffffffffffffffffffffffffffff1673ffffffffffffffffffffffffffffffffffffffff16815260200190815260200160002082815481106138e0576138df61552e565b5b9060005260206000209060070201600301541015613933576040517f08c379a000000000000000000000000000000000000000000000000000000000815260040161392a90615b1c565b60405180910390fd5b8360020154600160008660040160009054906101000a900473ffffffffffffffffffffffffffffffffffffffff1673ffffffffffffffffffffffffffffffffffffffff1673ffffffffffffffffffffffffffffffffffffffff16815260200190815260200160002082815481106139ad576139ac61552e565b5b906000526020600020906007020160030160008282546139cd9190615b3c565b92505081905550600191505b80806139e49061558c565b91505061375d565b5080613a2d576040517f08c379a0000000000000000000000000000000000000000000000000000000008152600401613a2490615bbc565b60405180910390fd5b81600360003373ffffffffffffffffffffffffffffffffffffffff1673ffffffffffffffffffffffffffffffffffffffff1681526020019081526020016000206000828254613a7c9190615916565b92505081905550600260003373ffffffffffffffffffffffffffffffffffffffff1673ffffffffffffffffffffffffffffffffffffffff1681526020019081526020016000206040518060c0016040528085600101548152602001856002015481526020013373ffffffffffffffffffffffffffffffffffffffff1681526020018560040160009054906101000a900473ffffffffffffffffffffffffffffffffffffffff1673ffffffffffffffffffffffffffffffffffffffff168152602001848152602001600015158152509080600181540180825580915050600190039060005260206000209060060201600090919091909150600082015181600001556020820151816001015560408201518160020160006101000a81548173ffffffffffffffffffffffffffffffffffffffff021916908373ffffffffffffffffffffffffffffffffffffffff16021790555060608201518160030160006101000a81548173ffffffffffffffffffffffffffffffffffffffff021916908373ffffffffffffffffffffffffffffffffffffffff1602179055506080820151816004015560a08201518160050160006101000a81548160ff021916908315150217905550505060038360060160006101000a81548160ff02191690836003811115613c6957613c68614709565b5b02179055508260040160009054906101000a900473ffffffffffffffffffffffffffffffffffffffff1673ffffffffffffffffffffffffffffffffffffffff163373ffffffffffffffffffffffffffffffffffffffff167fa048cb20af3564a7e7890fcaa3143722d8eea32e8c74cef665bb4ec1f2f48d828560010154866002015486604051613cfb93929190615bdc565b60405180910390a3857fc8926ec9c62d9b87ca5e4dfb0b49c1d0797cde714599e2c6d5663e5b813413ab6003604051613d349190615727565b60405180910390a2505050505050565b6000803373ffffffffffffffffffffffffffffffffffffffff1673ffffffffffffffffffffffffffffffffffffffff16815260200190815260200160002060000160159054906101000a900460ff16613dd2576040517f08c379a0000000000000000000000000000000000000000000000000000000008152600401613dc9906150ec565b60405180910390fd5b600280811115613de557613de4614709565b5b6000803373ffffffffffffffffffffffffffffffffffffffff1673ffffffffffffffffffffffffffffffffffffffff16815260200190815260200160002060000160149054906101000a900460ff166002811115613e4657613e45614709565b5b14613e86576040517f08c379a0000000000000000000000000000000000000000000000000000000008152600401613e7d906157c5565b60405180910390fd5b6000600260003373ffffffffffffffffffffffffffffffffffffffff1673ffffffffffffffffffffffffffffffffffffffff168152602001908152602001600020905060005b818054905081101561423e5782828281548110613eec57613eeb61552e565b5b906000526020600020906006020160000154148015613f3a5750818181548110613f1957613f1861552e565b5b906000526020600020906006020160050160009054906101000a900460ff16155b1561422b576001828281548110613f5457613f5361552e565b5b906000526020600020906006020160050160006101000a81548160ff0219169083151502179055506000828281548110613f9157613f9061552e565b5b906000526020600020906006020160030160009054906101000a900473ffffffffffffffffffffffffffffffffffffffff1690506000838381548110613fda57613fd961552e565b5b906000526020600020906006020160040154905060008111614031576040517f08c379a000000000000000000000000000000000000000000000000000000000815260040161402890615c5f565b60405180910390fd5b80600360003373ffffffffffffffffffffffffffffffffffffffff1673ffffffffffffffffffffffffffffffffffffffff1681526020019081526020016000205410156140b3576040517f08c379a00000000000000000000000000000000000000000000000000000000081526004016140aa90615ccb565b60405180910390fd5b80600360003373ffffffffffffffffffffffffffffffffffffffff1673ffffffffffffffffffffffffffffffffffffffff16815260200190815260200160002060008282546141029190615b3c565b9250508190555060008273ffffffffffffffffffffffffffffffffffffffff168261c3509060405161413390615d1c565b600060405180830381858888f193505050503d8060008114614171576040519150601f19603f3d011682016040523d82523d6000602084013e614176565b606091505b50509050806141ba576040517f08c379a00000000000000000000000000000000000000000000000000000000081526004016141b190615da3565b60405180910390fd5b8273ffffffffffffffffffffffffffffffffffffffff163373ffffffffffffffffffffffffffffffffffffffff167fd5e90be9a023903c75b4f6929a82787cf6fd6c8e38c3f8801cc9705825496b648885604051614219929190615877565b60405180910390a3505050505061427a565b80806142369061558c565b915050613ecc565b506040517f08c379a000000000000000000000000000000000000000000000000000000000815260040161427190615e0f565b60405180910390fd5b50565b604051806101200160405280600081526020016000815260200160008152602001600073ffffffffffffffffffffffffffffffffffffffff168152602001600073ffffffffffffffffffffffffffffffffffffffff16815260200160008152602001600060038111156142f3576142f2614709565b5b815260200160608152602001600081525090565b6040518060c001604052806000815260200160008152602001600073ffffffffffffffffffffffffffffffffffffffff168152602001600073ffffffffffffffffffffffffffffffffffffffff168152602001600081526020016000151581525090565b6040518060e001604052806060815260200160008152602001600081526020016000815260200160608152602001600073ffffffffffffffffffffffffffffffffffffffff168152602001606081525090565b600081519050919050565b600082825260208201905092915050565b6000819050602082019050919050565b600081519050919050565b600082825260208201905092915050565b60005b83811015614424578082015181840152602081019050614409565b60008484015250505050565b6000601f19601f8301169050919050565b600061444c826143ea565b61445681856143f5565b9350614466818560208601614406565b61446f81614430565b840191505092915050565b6000819050919050565b61448d8161447a565b82525050565b600073ffffffffffffffffffffffffffffffffffffffff82169050919050565b60006144be82614493565b9050919050565b6144ce816144b3565b82525050565b600060e08301600083015184820360008601526144f18282614441565b91505060208301516145066020860182614484565b5060408301516145196040860182614484565b50606083015161452c6060860182614484565b50608083015184820360808601526145448282614441565b91505060a083015161455960a08601826144c5565b5060c083015184820360c08601526145718282614441565b9150508091505092915050565b600061458a83836144d4565b905092915050565b6000602082019050919050565b60006145aa826143be565b6145b481856143c9565b9350836020820285016145c6856143da565b8060005b8581101561460257848403895281516145e3858261457e565b94506145ee83614592565b925060208a019950506001810190506145ca565b50829750879550505050505092915050565b6000602082019050818103600083015261462e818461459f565b905092915050565b6000604051905090565b600080fd5b600080fd5b600060ff82169050919050565b6146608161464a565b811461466b57600080fd5b50565b60008135905061467d81614657565b92915050565b60006020828403121561469957614698614640565b5b60006146a78482850161466e565b91505092915050565b6146b9816144b3565b81146146c457600080fd5b50565b6000813590506146d6816146b0565b92915050565b6000602082840312156146f2576146f1614640565b5b6000614700848285016146c7565b91505092915050565b7f4e487b7100000000000000000000000000000000000000000000000000000000600052602160045260246000fd5b6003811061474957614748614709565b5b50565b600081905061475a82614738565b919050565b600061476a8261474c565b9050919050565b61477a8161475f565b82525050565b60006020820190506147956000830184614771565b92915050565b6147a48161447a565b81146147af57600080fd5b50565b6000813590506147c18161479b565b92915050565b60008115159050919050565b6147dc816147c7565b81146147e757600080fd5b50565b6000813590506147f9816147d3565b92915050565b6000806040838503121561481657614815614640565b5b6000614824858286016147b2565b9250506020614835858286016147ea565b9150509250929050565b600081519050919050565b600082825260208201905092915050565b6000819050602082019050919050565b6004811061487c5761487b614709565b5b50565b600081905061488d8261486b565b919050565b600061489d8261487f565b9050919050565b6148ad81614892565b82525050565b6000610120830160008301516148cc6000860182614484565b5060208301516148df6020860182614484565b5060408301516148f26040860182614484565b50606083015161490560608601826144c5565b50608083015161491860808601826144c5565b5060a083015161492b60a0860182614484565b5060c083015161493e60c08601826148a4565b5060e083015184820360e08601526149568282614441565b91505061010083015161496d610100860182614484565b508091505092915050565b600061498483836148b3565b905092915050565b6000602082019050919050565b60006149a48261483f565b6149ae818561484a565b9350836020820285016149c08561485b565b8060005b858110156149fc57848403895281516149dd8582614978565b94506149e88361498c565b925060208a019950506001810190506149c4565b50829750879550505050505092915050565b60006020820190508181036000830152614a288184614999565b905092915050565b600080fd5b600080fd5b7f4e487b7100000000000000000000000000000000000000000000000000000000600052604160045260246000fd5b614a7282614430565b810181811067ffffffffffffffff82111715614a9157614a90614a3a565b5b80604052505050565b6000614aa4614636565b9050614ab08282614a69565b919050565b600067ffffffffffffffff821115614ad057614acf614a3a565b5b614ad982614430565b9050602081019050919050565b82818337600083830152505050565b6000614b08614b0384614ab5565b614a9a565b905082815260208101848484011115614b2457614b23614a35565b5b614b2f848285614ae6565b509392505050565b600082601f830112614b4c57614b4b614a30565b5b8135614b5c848260208601614af5565b91505092915050565b60008060008060808587031215614b7f57614b7e614640565b5b600085013567ffffffffffffffff811115614b9d57614b9c614645565b5b614ba987828801614b37565b945050602085013567ffffffffffffffff811115614bca57614bc9614645565b5b614bd687828801614b37565b935050604085013567ffffffffffffffff811115614bf757614bf6614645565b5b614c0387828801614b37565b925050606085013567ffffffffffffffff811115614c2457614c23614645565b5b614c3087828801614b37565b91505092959194509250565b600080600060608486031215614c5557614c54614640565b5b6000614c63868287016147b2565b9350506020614c74868287016147b2565b925050604084013567ffffffffffffffff811115614c9557614c94614645565b5b614ca186828701614b37565b9150509250925092565b600081519050919050565b600082825260208201905092915050565b6000819050602082019050919050565b614ce0816147c7565b82525050565b60c082016000820151614cfc6000850182614484565b506020820151614d0f6020850182614484565b506040820151614d2260408501826144c5565b506060820151614d3560608501826144c5565b506080820151614d486080850182614484565b5060a0820151614d5b60a0850182614cd7565b50505050565b6000614d6d8383614ce6565b60c08301905092915050565b6000602082019050919050565b6000614d9182614cab565b614d9b8185614cb6565b9350614da683614cc7565b8060005b83811015614dd7578151614dbe8882614d61565b9750614dc983614d79565b925050600181019050614daa565b5085935050505092915050565b60006020820190508181036000830152614dfe8184614d86565b905092915050565b60008060008060008060c08789031215614e2357614e22614640565b5b600087013567ffffffffffffffff811115614e4157614e40614645565b5b614e4d89828a01614b37565b9650506020614e5e89828a016147b2565b9550506040614e6f89828a016147b2565b9450506060614e8089828a016147b2565b935050608087013567ffffffffffffffff811115614ea157614ea0614645565b5b614ead89828a01614b37565b92505060a087013567ffffffffffffffff811115614ece57614ecd614645565b5b614eda89828a01614b37565b9150509295509295509295565b614ef08161447a565b82525050565b6000602082019050614f0b6000830184614ee7565b92915050565b600082825260208201905092915050565b6000614f2d826143ea565b614f378185614f11565b9350614f47818560208601614406565b614f5081614430565b840191505092915050565b600060a0820190508181036000830152614f758188614f22565b90508181036020830152614f898187614f22565b90508181036040830152614f9d8186614f22565b90508181036060830152614fb18185614f22565b9050614fc06080830184614771565b9695505050505050565b614fd3816144b3565b82525050565b614fe2816147c7565b82525050565b600060e082019050614ffd600083018a614fca565b61500a6020830189614771565b6150176040830188614fd9565b81810360608301526150298187614f22565b9050818103608083015261503d8186614f22565b905081810360a08301526150518185614f22565b905081810360c08301526150658184614f22565b905098975050505050505050565b60006020828403121561508957615088614640565b5b6000615097848285016147b2565b91505092915050565b7f55736572206e6f74207265676973746572656400000000000000000000000000600082015250565b60006150d6601383614f11565b91506150e1826150a0565b602082019050919050565b60006020820190508181036000830152615105816150c9565b9050919050565b7f4f6e6c79206661726d65727320616c6c6f776564000000000000000000000000600082015250565b6000615142601483614f11565b915061514d8261510c565b602082019050919050565b6000602082019050818103600083015261517181615135565b9050919050565b7f4e487b7100000000000000000000000000000000000000000000000000000000600052602260045260246000fd5b600060028204905060018216806151bf57607f821691505b6020821081036151d2576151d1615178565b5b50919050565b7f496e76616c696420726f6c650000000000000000000000000000000000000000600082015250565b600061520e600c83614f11565b9150615219826151d8565b602082019050919050565b6000602082019050818103600083015261523d81615201565b9050919050565b7f5573657220616c72656164792072656769737465726564000000000000000000600082015250565b600061527a601783614f11565b915061528582615244565b602082019050919050565b600060208201905081810360008301526152a98161526d565b9050919050565b60008190508160005260206000209050919050565b60006020601f8301049050919050565b600082821b905092915050565b6000600883026153127fffffffffffffffffffffffffffffffffffffffffffffffffffffffffffffffff826152d5565b61531c86836152d5565b95508019841693508086168417925050509392505050565b6000819050919050565b600061535961535461534f8461447a565b615334565b61447a565b9050919050565b6000819050919050565b6153738361533e565b61538761537f82615360565b8484546152e2565b825550505050565b600090565b61539c61538f565b6153a781848461536a565b505050565b5b818110156153cb576153c0600082615394565b6001810190506153ad565b5050565b601f821115615410576153e1816152b0565b6153ea846152c5565b810160208510156153f9578190505b61540d615405856152c5565b8301826153ac565b50505b505050565b600082821c905092915050565b600061543360001984600802615415565b1980831691505092915050565b600061544c8383615422565b9150826002028217905092915050565b615465826143ea565b67ffffffffffffffff81111561547e5761547d614a3a565b5b61548882546151a7565b6154938282856153cf565b600060209050601f8311600181146154c657600084156154b4578287015190505b6154be8582615440565b865550615526565b601f1984166154d4866152b0565b60005b828110156154fc578489015182556001820191506020850194506020810190506154d7565b868310156155195784890151615515601f891682615422565b8355505b6001600288020188555050505b505050505050565b7f4e487b7100000000000000000000000000000000000000000000000000000000600052603260045260246000fd5b7f4e487b7100000000000000000000000000000000000000000000000000000000600052601160045260246000fd5b60006155978261447a565b91507fffffffffffffffffffffffffffffffffffffffffffffffffffffffffffffffff82036155c9576155c861555d565b5b600182019050919050565b7f52657175657374206e6f7420666f756e64000000000000000000000000000000600082015250565b600061560a601183614f11565b9150615615826155d4565b602082019050919050565b60006020820190508181036000830152615639816155fd565b9050919050565b7f4e6f7420796f7572207265717565737420746f20726573706f6e6420746f0000600082015250565b6000615676601e83614f11565b915061568182615640565b602082019050919050565b600060208201905081810360008301526156a581615669565b9050919050565b7f52657175657374206973206e6f742070656e64696e6700000000000000000000600082015250565b60006156e2601683614f11565b91506156ed826156ac565b602082019050919050565b60006020820190508181036000830152615711816156d5565b9050919050565b61572181614892565b82525050565b600060208201905061573c6000830184615718565b92915050565b6000604082019050818103600083015261575c8185614f22565b905081810360208301526157708184614f22565b90509392505050565b7f4f6e6c792062757965727320616c6c6f77656400000000000000000000000000600082015250565b60006157af601383614f11565b91506157ba82615779565b602082019050919050565b600060208201905081810360008301526157de816157a2565b9050919050565b7f43726f70206e6f7420666f756e64206f7220696e73756666696369656e74207160008201527f75616e746974792e000000000000000000000000000000000000000000000000602082015250565b6000615841602883614f11565b915061584c826157e5565b604082019050919050565b6000602082019050818103600083015261587081615834565b9050919050565b600060408201905061588c6000830185614ee7565b6158996020830184614ee7565b9392505050565b600060c08201905081810360008301526158ba8189614f22565b90506158c96020830188614ee7565b6158d66040830187614ee7565b6158e36060830186614ee7565b81810360808301526158f58185614f22565b905081810360a08301526159098184614f22565b9050979650505050505050565b60006159218261447a565b915061592c8361447a565b92508282019050808211156159445761594361555d565b5b92915050565b7f4e6f7420796f7572207265717565737400000000000000000000000000000000600082015250565b6000615980601083614f11565b915061598b8261594a565b602082019050919050565b600060208201905081810360008301526159af81615973565b9050919050565b7f5265717565737420686173206e6f74206265656e206163636570746564000000600082015250565b60006159ec601d83614f11565b91506159f7826159b6565b602082019050919050565b60006020820190508181036000830152615a1b816159df565b9050919050565b6000615a2d8261447a565b9150615a388361447a565b9250828202615a468161447a565b91508282048414831517615a5d57615a5c61555d565b5b5092915050565b7f496e636f7272656374207061796d656e7420616d6f756e740000000000000000600082015250565b6000615a9a601883614f11565b9150615aa582615a64565b602082019050919050565b60006020820190508181036000830152615ac981615a8d565b9050919050565b7f496e73756666696369656e74207175616e7469747920617661696c61626c6500600082015250565b6000615b06601f83614f11565b9150615b1182615ad0565b602082019050919050565b60006020820190508181036000830152615b3581615af9565b9050919050565b6000615b478261447a565b9150615b528361447a565b9250828203905081811115615b6a57615b6961555d565b5b92915050565b7f43726f70206e6f206c6f6e67657220617661696c61626c650000000000000000600082015250565b6000615ba6601883614f11565b9150615bb182615b70565b602082019050919050565b60006020820190508181036000830152615bd581615b99565b9050919050565b6000606082019050615bf16000830186614ee7565b615bfe6020830185614ee7565b615c0b6040830184614ee7565b949350505050565b7f4e6f2066756e647320617661696c61626c6520666f72207472616e736665722e600082015250565b6000615c49602083614f11565b9150615c5482615c13565b602082019050919050565b60006020820190508181036000830152615c7881615c3c565b9050919050565b7f496e73756666696369656e7420657363726f772062616c616e63652e00000000600082015250565b6000615cb5601c83614f11565b9150615cc082615c7f565b602082019050919050565b60006020820190508181036000830152615ce481615ca8565b9050919050565b600081905092915050565b50565b6000615d06600083615ceb565b9150615d1182615cf6565b600082019050919050565b6000615d2782615cf9565b9150819050919050565b7f5472616e73616374696f6e206661696c65642c20706f737369626c792064756560008201527f20746f20676173206c696d69742e000000000000000000000000000000000000602082015250565b6000615d8d602e83614f11565b9150615d9882615d31565b604082019050919050565b60006020820190508181036000830152615dbc81615d80565b9050919050565b7f4e6f2070656e64696e672064656c697665727920666f756e642e000000000000600082015250565b6000615df9601a83614f11565b9150615e0482615dc3565b602082019050919050565b60006020820190508181036000830152615e2881615dec565b905091905056fea2646970667358221220ce02b85587b353aae72fc2ed4caa22cdb7b328998f2a26573559622758d9735564736f6c63430008130033",
  "immutableReferences": {},
  "source": "// SPDX-License-Identifier: MIT\npragma solidity ^0.8.19;\n\ncontract FarmerPortal {\n    enum UserRole { Unregistered, Farmer, Buyer }\n    enum RequestStatus { Pending, Accepted, Rejected, Completed }\n\n    struct User {\n        address wallet;\n        UserRole role;\n        bool registered;\n        string name;\n        string profileImageCID;\n        string location;\n        string contact;\n    }\n\n    struct CropListing {\n        string cropName;\n        uint256 price;\n        uint256 cropID;\n        uint256 quantity;\n        string deliveryDate;\n        address farmer;\n        string imageCID;\n    }\n\n    struct Purchase {\n        uint256 cropID;\n        uint256 quantity;\n        address buyer;\n        address farmer;\n        uint256 amountHeld;\n        bool delivered;\n    }\n\n    struct PurchaseRequest {\n        uint256 requestId;\n        uint256 cropID;\n        uint256 quantity;\n        address buyer;\n        address farmer;\n        uint256 price;\n        RequestStatus status;\n        string message;\n        uint256 timestamp;\n    }\n\n    mapping(address => User) public users;\n    mapping(address => CropListing[]) private farmerListings;\n    mapping(address => Purchase[]) private deliveries;\n    mapping(address => uint256) public escrowBalances;\n    address[] private farmers;\n    \n    PurchaseRequest[] private purchaseRequests;\n    mapping(address => uint[]) private farmerRequests; // Requests for each farmer\n    mapping(address => uint[]) private buyerRequests; // Requests from each buyer\n    uint256 private nextRequestId = 1;\n\n    event UserRegistered(address indexed user, UserRole role);\n    event UserProfileUpdated(address indexed user, string name, string profileImageCID);\n    event CropListed(address indexed farmer, string cropName, uint256 price, uint256 cropID, uint256 quantity, string deliveryDate, string imageCID);\n    event CropBought(address indexed buyer, address indexed farmer, uint256 cropID, uint256 quantity, uint256 amountHeld);\n    event DeliveryConfirmed(address indexed buyer, address indexed farmer, uint256 cropID, uint256 amountReleased);\n    event PurchaseRequested(uint256 indexed requestId, address indexed buyer, address indexed farmer, uint256 cropID, uint256 quantity);\n    event RequestStatusChanged(uint256 indexed requestId, RequestStatus status);\n\n    modifier onlyFarmer() {\n        require(users[msg.sender].registered, \"User not registered\");\n        require(users[msg.sender].role == UserRole.Farmer, \"Only farmers allowed\");\n        _;\n    }\n\n    modifier onlyBuyer() {\n        require(users[msg.sender].registered, \"User not registered\");\n        require(users[msg.sender].role == UserRole.Buyer, \"Only buyers allowed\");\n        _;\n    }\n\n    function registerUser(uint8 role) external {\n        require(role == uint8(UserRole.Farmer) || role == uint8(UserRole.Buyer), \"Invalid role\");\n        require(!users[msg.sender].registered, \"User already registered\");\n\n        users[msg.sender] = User(msg.sender, UserRole(role), true, \"\", \"\", \"\", \"\");\n        emit UserRegistered(msg.sender, UserRole(role));\n\n        if (role == uint8(UserRole.Farmer)) {\n            farmers.push(msg.sender);\n        }\n    }\n\n    function updateUserProfile(string memory _name, string memory _profileImageCID, string memory _location, string memory _contact) external {\n        require(users[msg.sender].registered, \"User not registered\");\n        \n        User storage user = users[msg.sender];\n        user.name = _name;\n        user.profileImageCID = _profileImageCID;\n        user.location = _location;\n        user.contact = _contact;\n        \n        emit UserProfileUpdated(msg.sender, _name, _profileImageCID);\n    }\n\n    function getUserProfile(address _userAddress) external view returns (string memory, string memory, string memory, string memory, UserRole) {\n        require(users[_userAddress].registered, \"User not registered\");\n        User memory user = users[_userAddress];\n        return (user.name, user.profileImageCID, user.location, user.contact, user.role);\n    }\n\n    function addListing(\n        string memory _cropName, \n        uint256 _price, \n        uint256 _cropID, \n        uint256 _quantity, \n        string memory _deliveryDate,\n        string memory _imageCID\n    ) external onlyFarmer {\n        CropListing memory newCrop = CropListing(\n            _cropName, \n            _price, \n            _cropID, \n            _quantity, \n            _deliveryDate, \n            msg.sender,\n            _imageCID\n        );\n        farmerListings[msg.sender].push(newCrop);\n        emit CropListed(msg.sender, _cropName, _price, _cropID, _quantity, _deliveryDate, _imageCID);\n    }\n\n    function getMyListings() external view onlyFarmer returns (CropListing[] memory) {\n        return farmerListings[msg.sender];\n    }\n\n    function getUserRole(address _user) external view returns (UserRole) {\n        return users[_user].role;\n    }\n\n    function getAllListings() external view returns (CropListing[] memory) {\n        uint256 totalCrops = 0;\n        for (uint256 i = 0; i < farmers.length; i++) {\n            totalCrops += farmerListings[farmers[i]].length;\n        }\n\n        CropListing[] memory allListings = new CropListing[](totalCrops);\n        uint256 index = 0;\n\n        for (uint256 i = 0; i < farmers.length; i++) {\n            address farmer = farmers[i]; \n            uint256 len = farmerListings[farmer].length;\n            for (uint256 j = 0; j < len; j++) {\n                allListings[index++] = farmerListings[farmer][j];\n            }\n        }\n\n        return allListings;\n    }\n\n    // New function for buyers to request purchase\n    function requestPurchase(uint256 cropID, uint256 quantity, string memory message) external onlyBuyer {\n        // Find the crop\n        address farmerAddress;\n        uint256 price;\n        bool found = false;\n        \n        for (uint256 i = 0; i < farmers.length && !found; i++) {\n            address farmer = farmers[i];\n            uint256 len = farmerListings[farmer].length;\n\n            for (uint256 j = 0; j < len && !found; j++) {\n                CropListing storage crop = farmerListings[farmer][j];\n\n                if (crop.cropID == cropID && crop.quantity >= quantity) {\n                    farmerAddress = farmer;\n                    price = crop.price;\n                    found = true;\n                }\n            }\n        }\n        \n        require(found, \"Crop not found or insufficient quantity.\");\n        \n        // Create a purchase request\n        uint256 requestId = nextRequestId++;\n        PurchaseRequest memory newRequest = PurchaseRequest({\n            requestId: requestId,\n            cropID: cropID,\n            quantity: quantity,\n            buyer: msg.sender,\n            farmer: farmerAddress,\n            price: price,\n            status: RequestStatus.Pending,\n            message: message,\n            timestamp: block.timestamp\n        });\n        \n        purchaseRequests.push(newRequest);\n        farmerRequests[farmerAddress].push(requestId);\n        buyerRequests[msg.sender].push(requestId);\n        \n        emit PurchaseRequested(requestId, msg.sender, farmerAddress, cropID, quantity);\n    }\n    \n    // Function for farmers to accept or reject purchase requests\n    function respondToPurchaseRequest(uint256 requestId, bool accept) external onlyFarmer {\n        // Find the request\n        uint256 index = 0;\n        bool found = false;\n        \n        for (uint256 i = 0; i < purchaseRequests.length && !found; i++) {\n            if (purchaseRequests[i].requestId == requestId) {\n                index = i;\n                found = true;\n            }\n        }\n        \n        require(found, \"Request not found\");\n        require(purchaseRequests[index].farmer == msg.sender, \"Not your request to respond to\");\n        require(purchaseRequests[index].status == RequestStatus.Pending, \"Request is not pending\");\n        \n        if (accept) {\n            purchaseRequests[index].status = RequestStatus.Accepted;\n        } else {\n            purchaseRequests[index].status = RequestStatus.Rejected;\n        }\n        \n        emit RequestStatusChanged(requestId, purchaseRequests[index].status);\n    }\n    \n    // Function for buyers to complete the purchase after acceptance\n    function completePurchase(uint256 requestId) external payable onlyBuyer {\n        // Find the request\n        uint256 index = 0;\n        bool found = false;\n        \n        for (uint256 i = 0; i < purchaseRequests.length && !found; i++) {\n            if (purchaseRequests[i].requestId == requestId) {\n                index = i;\n                found = true;\n            }\n        }\n        \n        require(found, \"Request not found\");\n        require(purchaseRequests[index].buyer == msg.sender, \"Not your request\");\n        require(purchaseRequests[index].status == RequestStatus.Accepted, \"Request has not been accepted\");\n        \n        PurchaseRequest storage request = purchaseRequests[index];\n        uint256 totalPrice = request.price * request.quantity;\n        \n        require(msg.value == totalPrice, \"Incorrect payment amount\");\n        \n        // Update crop quantity\n        bool cropFound = false;\n        for (uint256 i = 0; i < farmerListings[request.farmer].length && !cropFound; i++) {\n            if (farmerListings[request.farmer][i].cropID == request.cropID) {\n                require(farmerListings[request.farmer][i].quantity >= request.quantity, \"Insufficient quantity available\");\n                farmerListings[request.farmer][i].quantity -= request.quantity;\n                cropFound = true;\n            }\n        }\n        \n        require(cropFound, \"Crop no longer available\");\n        \n        // Add to escrow\n                    escrowBalances[msg.sender] += totalPrice;\n\n        // Create a purchase record\n                    deliveries[msg.sender].push(\n                        Purchase({\n                cropID: request.cropID,\n                quantity: request.quantity,\n                            buyer: msg.sender,\n                farmer: request.farmer,\n                            amountHeld: totalPrice,\n                            delivered: false\n                        })\n                    );\n\n        // Update request status\n        request.status = RequestStatus.Completed;\n        \n        emit CropBought(msg.sender, request.farmer, request.cropID, request.quantity, totalPrice);\n        emit RequestStatusChanged(requestId, RequestStatus.Completed);\n    }\n\n    // Function to get purchase requests for a farmer\n    function getFarmerRequests() external view onlyFarmer returns (PurchaseRequest[] memory) {\n        uint256[] memory requestIds = farmerRequests[msg.sender];\n        PurchaseRequest[] memory requests = new PurchaseRequest[](requestIds.length);\n        \n        for (uint256 i = 0; i < requestIds.length; i++) {\n            uint256 requestId = requestIds[i];\n            \n            // Find the request in the array\n            for (uint256 j = 0; j < purchaseRequests.length; j++) {\n                if (purchaseRequests[j].requestId == requestId) {\n                    requests[i] = purchaseRequests[j];\n                    break;\n                }\n            }\n        }\n        \n        return requests;\n    }\n    \n    // Function to get purchase requests for a buyer\n    function getBuyerRequests() external view onlyBuyer returns (PurchaseRequest[] memory) {\n        uint256[] memory requestIds = buyerRequests[msg.sender];\n        PurchaseRequest[] memory requests = new PurchaseRequest[](requestIds.length);\n        \n        for (uint256 i = 0; i < requestIds.length; i++) {\n            uint256 requestId = requestIds[i];\n            \n            // Find the request in the array\n            for (uint256 j = 0; j < purchaseRequests.length; j++) {\n                if (purchaseRequests[j].requestId == requestId) {\n                    requests[i] = purchaseRequests[j];\n                    break;\n                }\n            }\n        }\n        \n        return requests;\n    }\n\n    function getPendingDeliveries() external view onlyBuyer returns (Purchase[] memory) {\n        uint256 count = 0;\n        Purchase[] storage userPurchases = deliveries[msg.sender];\n\n        for (uint256 i = 0; i < userPurchases.length; i++) {\n            if (!userPurchases[i].delivered) {\n                count++;\n            }\n        }\n\n        Purchase[] memory pendingDeliveries = new Purchase[](count);\n        uint256 index = 0;\n\n        for (uint256 i = 0; i < userPurchases.length; i++) {\n            if (!userPurchases[i].delivered) {\n                pendingDeliveries[index++] = userPurchases[i];\n            }\n        }\n\n        return pendingDeliveries;\n    }\n\n    function confirmDelivery(uint256 cropID) external onlyBuyer {\n        Purchase[] storage userPurchases = deliveries[msg.sender];\n\n        for (uint256 i = 0; i < userPurchases.length; i++) {\n            if (userPurchases[i].cropID == cropID && !userPurchases[i].delivered) {\n                userPurchases[i].delivered = true;\n                address farmer = userPurchases[i].farmer;\n                uint256 amount = userPurchases[i].amountHeld;\n\n                require(amount > 0, \"No funds available for transfer.\");\n                require(escrowBalances[msg.sender] >= amount, \"Insufficient escrow balance.\");\n\n    \n                escrowBalances[msg.sender] -= amount;\n\n          \n                (bool success, ) = payable(farmer).call{value: amount, gas: 50000}(\"\");\n                require(success, \"Transaction failed, possibly due to gas limit.\");\n\n                emit DeliveryConfirmed(msg.sender, farmer, cropID, amount);\n                return;\n            }\n        }\n        revert(\"No pending delivery found.\");\n    }\n    \n}\n",
  "sourcePath": "D:\\FarmAssure\\FarmAssure\\FarmAssure\\contract\\contracts\\FarmerPortal.sol",
  "compiler": {
    "name": "solc",
    "version": "0.8.19+commit.7dd6d404.Emscripten.clang"
  },
  "schemaVersion": "3.4.16",
  "updatedAt": "2025-09-14T09:56:09.860Z",
  "networkType": "ethereum",
  "devdoc": {
    "kind": "dev",
    "methods": {},
    "version": 1
  },
  "userdoc": {
    "kind": "user",
    "methods": {},
    "version": 1
  }
}